{
	"contracts/1_Storage.sol": {
		"StorageContract": {
			"abi": [
				{
					"anonymous": false,
					"inputs": [
						{
							"indexed": false,
							"internalType": "uint256",
							"name": "key",
							"type": "uint256"
						},
						{
							"indexed": false,
							"internalType": "uint256",
							"name": "number",
							"type": "uint256"
						},
						{
							"indexed": false,
							"internalType": "string",
							"name": "name",
							"type": "string"
						},
						{
							"indexed": false,
							"internalType": "address",
							"name": "owner",
							"type": "address"
						}
					],
					"name": "DataAdded",
					"type": "event"
				},
				{
					"anonymous": false,
					"inputs": [
						{
							"indexed": false,
							"internalType": "uint256",
							"name": "key",
							"type": "uint256"
						},
						{
							"indexed": false,
							"internalType": "uint256",
							"name": "number",
							"type": "uint256"
						},
						{
							"indexed": false,
							"internalType": "string",
							"name": "name",
							"type": "string"
						},
						{
							"indexed": false,
							"internalType": "address",
							"name": "owner",
							"type": "address"
						}
					],
					"name": "DataRemoved",
					"type": "event"
				},
				{
					"inputs": [
						{
							"internalType": "uint256",
							"name": "key",
							"type": "uint256"
						},
						{
							"internalType": "uint256",
							"name": "_number",
							"type": "uint256"
						},
						{
							"internalType": "string",
							"name": "_name",
							"type": "string"
						}
					],
					"name": "addData",
					"outputs": [],
					"stateMutability": "nonpayable",
					"type": "function"
				},
				{
					"inputs": [
						{
							"internalType": "uint256",
							"name": "key",
							"type": "uint256"
						}
					],
					"name": "removeData",
					"outputs": [],
					"stateMutability": "nonpayable",
					"type": "function"
				}
			],
			"devdoc": {
				"kind": "dev",
				"methods": {},
				"version": 1
			},
			"evm": {
				"assembly": "    /* \"contracts/1_Storage.sol\":70:1991  contract StorageContract {... */\n  mstore(0x40, 0x80)\n  callvalue\n  dup1\n  iszero\n  tag_1\n  jumpi\n  0x00\n  dup1\n  revert\ntag_1:\n  pop\n  dataSize(sub_0)\n  dup1\n  dataOffset(sub_0)\n  0x00\n  codecopy\n  0x00\n  return\nstop\n\nsub_0: assembly {\n        /* \"contracts/1_Storage.sol\":70:1991  contract StorageContract {... */\n      mstore(0x40, 0x80)\n      callvalue\n      dup1\n      iszero\n      tag_1\n      jumpi\n      0x00\n      dup1\n      revert\n    tag_1:\n      pop\n      jumpi(tag_2, lt(calldatasize, 0x04))\n      shr(0xe0, calldataload(0x00))\n      dup1\n      0x1c44252c\n      eq\n      tag_3\n      jumpi\n      dup1\n      0xa94840bb\n      eq\n      tag_4\n      jumpi\n    tag_2:\n      0x00\n      dup1\n      revert\n        /* \"contracts/1_Storage.sol\":729:1271  function addData(uint256 key, uint256 _number, string memory _name) external {... */\n    tag_3:\n      tag_5\n      0x04\n      dup1\n      calldatasize\n      sub\n      dup2\n      add\n      swap1\n      tag_6\n      swap2\n      swap1\n      tag_7\n      jump\t// in\n    tag_6:\n      tag_8\n      jump\t// in\n    tag_5:\n      stop\n        /* \"contracts/1_Storage.sol\":1383:1743  function removeData(uint256 key) external {... */\n    tag_4:\n      tag_9\n      0x04\n      dup1\n      calldatasize\n      sub\n      dup2\n      add\n      swap1\n      tag_10\n      swap2\n      swap1\n      tag_11\n      jump\t// in\n    tag_10:\n      tag_12\n      jump\t// in\n    tag_9:\n      stop\n        /* \"contracts/1_Storage.sol\":729:1271  function addData(uint256 key, uint256 _number, string memory _name) external {... */\n    tag_8:\n        /* \"contracts/1_Storage.sol\":852:857  false */\n      0x00\n        /* \"contracts/1_Storage.sol\":824:857  myDataMap[key].isDeleted == false */\n      iszero\n      iszero\n        /* \"contracts/1_Storage.sol\":824:833  myDataMap */\n      0x00\n        /* \"contracts/1_Storage.sol\":824:838  myDataMap[key] */\n      dup1\n        /* \"contracts/1_Storage.sol\":834:837  key */\n      dup6\n        /* \"contracts/1_Storage.sol\":824:838  myDataMap[key] */\n      dup2\n      mstore\n      0x20\n      add\n      swap1\n      dup2\n      mstore\n      0x20\n      add\n      0x00\n      keccak256\n        /* \"contracts/1_Storage.sol\":824:848  myDataMap[key].isDeleted */\n      0x02\n      add\n      0x14\n      swap1\n      sload\n      swap1\n      0x0100\n      exp\n      swap1\n      div\n      0xff\n      and\n        /* \"contracts/1_Storage.sol\":824:857  myDataMap[key].isDeleted == false */\n      iszero\n      iszero\n      eq\n        /* \"contracts/1_Storage.sol\":816:895  require(myDataMap[key].isDeleted == false, \"Data with this key already exists\") */\n      tag_14\n      jumpi\n      mload(0x40)\n      0x08c379a000000000000000000000000000000000000000000000000000000000\n      dup2\n      mstore\n      0x04\n      add\n      tag_15\n      swap1\n      tag_16\n      jump\t// in\n    tag_15:\n      mload(0x40)\n      dup1\n      swap2\n      sub\n      swap1\n      revert\n    tag_14:\n        /* \"contracts/1_Storage.sol\":914:935  MyData memory newData */\n      0x00\n        /* \"contracts/1_Storage.sol\":938:1071  MyData({... */\n      mload(0x40)\n      dup1\n      0x80\n      add\n      0x40\n      mstore\n      dup1\n        /* \"contracts/1_Storage.sol\":967:974  _number */\n      dup5\n        /* \"contracts/1_Storage.sol\":938:1071  MyData({... */\n      dup2\n      mstore\n      0x20\n      add\n        /* \"contracts/1_Storage.sol\":994:999  _name */\n      dup4\n        /* \"contracts/1_Storage.sol\":938:1071  MyData({... */\n      dup2\n      mstore\n      0x20\n      add\n        /* \"contracts/1_Storage.sol\":1020:1030  msg.sender */\n      caller\n        /* \"contracts/1_Storage.sol\":938:1071  MyData({... */\n      0xffffffffffffffffffffffffffffffffffffffff\n      and\n      dup2\n      mstore\n      0x20\n      add\n        /* \"contracts/1_Storage.sol\":1055:1060  false */\n      0x00\n        /* \"contracts/1_Storage.sol\":938:1071  MyData({... */\n      iszero\n      iszero\n      dup2\n      mstore\n      pop\n        /* \"contracts/1_Storage.sol\":914:1071  MyData memory newData = MyData({... */\n      swap1\n      pop\n        /* \"contracts/1_Storage.sol\":1099:1106  newData */\n      dup1\n        /* \"contracts/1_Storage.sol\":1082:1091  myDataMap */\n      0x00\n        /* \"contracts/1_Storage.sol\":1082:1096  myDataMap[key] */\n      dup1\n        /* \"contracts/1_Storage.sol\":1092:1095  key */\n      dup7\n        /* \"contracts/1_Storage.sol\":1082:1096  myDataMap[key] */\n      dup2\n      mstore\n      0x20\n      add\n      swap1\n      dup2\n      mstore\n      0x20\n      add\n      0x00\n      keccak256\n        /* \"contracts/1_Storage.sol\":1082:1106  myDataMap[key] = newData */\n      0x00\n      dup3\n      add\n      mload\n      dup2\n      0x00\n      add\n      sstore\n      0x20\n      dup3\n      add\n      mload\n      dup2\n      0x01\n      add\n      swap1\n      dup2\n      tag_17\n      swap2\n      swap1\n      tag_18\n      jump\t// in\n    tag_17:\n      pop\n      0x40\n      dup3\n      add\n      mload\n      dup2\n      0x02\n      add\n      exp(0x0100, 0x00)\n      dup2\n      sload\n      dup2\n      0xffffffffffffffffffffffffffffffffffffffff\n      mul\n      not\n      and\n      swap1\n      dup4\n      0xffffffffffffffffffffffffffffffffffffffff\n      and\n      mul\n      or\n      swap1\n      sstore\n      pop\n      0x60\n      dup3\n      add\n      mload\n      dup2\n      0x02\n      add\n      exp(0x0100, 0x14)\n      dup2\n      sload\n      dup2\n      0xff\n      mul\n      not\n      and\n      swap1\n      dup4\n      iszero\n      iszero\n      mul\n      or\n      swap1\n      sstore\n      pop\n      swap1\n      pop\n      pop\n        /* \"contracts/1_Storage.sol\":1205:1264  DataAdded(key, newData.number, newData.name, newData.owner) */\n      0x8cd589c9f7f2b675df70a410381175736dcea1f0ef31b11e3da1198948e22613\n        /* \"contracts/1_Storage.sol\":1215:1218  key */\n      dup5\n        /* \"contracts/1_Storage.sol\":1220:1227  newData */\n      dup3\n        /* \"contracts/1_Storage.sol\":1220:1234  newData.number */\n      0x00\n      add\n      mload\n        /* \"contracts/1_Storage.sol\":1236:1243  newData */\n      dup4\n        /* \"contracts/1_Storage.sol\":1236:1248  newData.name */\n      0x20\n      add\n      mload\n        /* \"contracts/1_Storage.sol\":1250:1257  newData */\n      dup5\n        /* \"contracts/1_Storage.sol\":1250:1263  newData.owner */\n      0x40\n      add\n      mload\n        /* \"contracts/1_Storage.sol\":1205:1264  DataAdded(key, newData.number, newData.name, newData.owner) */\n      mload(0x40)\n      tag_19\n      swap5\n      swap4\n      swap3\n      swap2\n      swap1\n      tag_20\n      jump\t// in\n    tag_19:\n      mload(0x40)\n      dup1\n      swap2\n      sub\n      swap1\n      log1\n        /* \"contracts/1_Storage.sol\":806:1271  {... */\n      pop\n        /* \"contracts/1_Storage.sol\":729:1271  function addData(uint256 key, uint256 _number, string memory _name) external {... */\n      pop\n      pop\n      pop\n      jump\t// out\n        /* \"contracts/1_Storage.sol\":1383:1743  function removeData(uint256 key) external {... */\n    tag_12:\n        /* \"contracts/1_Storage.sol\":1471:1476  false */\n      0x00\n        /* \"contracts/1_Storage.sol\":1443:1476  myDataMap[key].isDeleted == false */\n      iszero\n      iszero\n        /* \"contracts/1_Storage.sol\":1443:1452  myDataMap */\n      0x00\n        /* \"contracts/1_Storage.sol\":1443:1457  myDataMap[key] */\n      dup1\n        /* \"contracts/1_Storage.sol\":1453:1456  key */\n      dup4\n        /* \"contracts/1_Storage.sol\":1443:1457  myDataMap[key] */\n      dup2\n      mstore\n      0x20\n      add\n      swap1\n      dup2\n      mstore\n      0x20\n      add\n      0x00\n      keccak256\n        /* \"contracts/1_Storage.sol\":1443:1467  myDataMap[key].isDeleted */\n      0x02\n      add\n      0x14\n      swap1\n      sload\n      swap1\n      0x0100\n      exp\n      swap1\n      div\n      0xff\n      and\n        /* \"contracts/1_Storage.sol\":1443:1476  myDataMap[key].isDeleted == false */\n      iszero\n      iszero\n      eq\n        /* \"contracts/1_Storage.sol\":1435:1513  require(myDataMap[key].isDeleted == false, \"Data with this key doesn't exist\") */\n      tag_22\n      jumpi\n      mload(0x40)\n      0x08c379a000000000000000000000000000000000000000000000000000000000\n      dup2\n      mstore\n      0x04\n      add\n      tag_23\n      swap1\n      tag_24\n      jump\t// in\n    tag_23:\n      mload(0x40)\n      dup1\n      swap2\n      sub\n      swap1\n      revert\n    tag_22:\n        /* \"contracts/1_Storage.sol\":1551:1555  true */\n      0x01\n        /* \"contracts/1_Storage.sol\":1524:1533  myDataMap */\n      0x00\n        /* \"contracts/1_Storage.sol\":1524:1538  myDataMap[key] */\n      dup1\n        /* \"contracts/1_Storage.sol\":1534:1537  key */\n      dup4\n        /* \"contracts/1_Storage.sol\":1524:1538  myDataMap[key] */\n      dup2\n      mstore\n      0x20\n      add\n      swap1\n      dup2\n      mstore\n      0x20\n      add\n      0x00\n      keccak256\n        /* \"contracts/1_Storage.sol\":1524:1548  myDataMap[key].isDeleted */\n      0x02\n      add\n      0x14\n        /* \"contracts/1_Storage.sol\":1524:1555  myDataMap[key].isDeleted = true */\n      0x0100\n      exp\n      dup2\n      sload\n      dup2\n      0xff\n      mul\n      not\n      and\n      swap1\n      dup4\n      iszero\n      iszero\n      mul\n      or\n      swap1\n      sstore\n      pop\n        /* \"contracts/1_Storage.sol\":1654:1736  DataRemoved(key, myDataMap[key].number, myDataMap[key].name, myDataMap[key].owner) */\n      0xdb0e01ba8b2d18056a89b229d0b4b08a0d7d57f1d4d7ea7aa4341d48fbfc1e73\n        /* \"contracts/1_Storage.sol\":1666:1669  key */\n      dup2\n        /* \"contracts/1_Storage.sol\":1671:1680  myDataMap */\n      0x00\n        /* \"contracts/1_Storage.sol\":1671:1685  myDataMap[key] */\n      dup1\n        /* \"contracts/1_Storage.sol\":1681:1684  key */\n      dup5\n        /* \"contracts/1_Storage.sol\":1671:1685  myDataMap[key] */\n      dup2\n      mstore\n      0x20\n      add\n      swap1\n      dup2\n      mstore\n      0x20\n      add\n      0x00\n      keccak256\n        /* \"contracts/1_Storage.sol\":1671:1692  myDataMap[key].number */\n      0x00\n      add\n      sload\n        /* \"contracts/1_Storage.sol\":1694:1703  myDataMap */\n      0x00\n        /* \"contracts/1_Storage.sol\":1694:1708  myDataMap[key] */\n      dup1\n        /* \"contracts/1_Storage.sol\":1704:1707  key */\n      dup6\n        /* \"contracts/1_Storage.sol\":1694:1708  myDataMap[key] */\n      dup2\n      mstore\n      0x20\n      add\n      swap1\n      dup2\n      mstore\n      0x20\n      add\n      0x00\n      keccak256\n        /* \"contracts/1_Storage.sol\":1694:1713  myDataMap[key].name */\n      0x01\n      add\n        /* \"contracts/1_Storage.sol\":1715:1724  myDataMap */\n      0x00\n        /* \"contracts/1_Storage.sol\":1715:1729  myDataMap[key] */\n      dup1\n        /* \"contracts/1_Storage.sol\":1725:1728  key */\n      dup7\n        /* \"contracts/1_Storage.sol\":1715:1729  myDataMap[key] */\n      dup2\n      mstore\n      0x20\n      add\n      swap1\n      dup2\n      mstore\n      0x20\n      add\n      0x00\n      keccak256\n        /* \"contracts/1_Storage.sol\":1715:1735  myDataMap[key].owner */\n      0x02\n      add\n      0x00\n      swap1\n      sload\n      swap1\n      0x0100\n      exp\n      swap1\n      div\n      0xffffffffffffffffffffffffffffffffffffffff\n      and\n        /* \"contracts/1_Storage.sol\":1654:1736  DataRemoved(key, myDataMap[key].number, myDataMap[key].name, myDataMap[key].owner) */\n      mload(0x40)\n      tag_25\n      swap5\n      swap4\n      swap3\n      swap2\n      swap1\n      tag_26\n      jump\t// in\n    tag_25:\n      mload(0x40)\n      dup1\n      swap2\n      sub\n      swap1\n      log1\n        /* \"contracts/1_Storage.sol\":1383:1743  function removeData(uint256 key) external {... */\n      pop\n      jump\t// out\n        /* \"#utility.yul\":7:82   */\n    tag_27:\n        /* \"#utility.yul\":40:46   */\n      0x00\n        /* \"#utility.yul\":73:75   */\n      0x40\n        /* \"#utility.yul\":67:76   */\n      mload\n        /* \"#utility.yul\":57:76   */\n      swap1\n      pop\n        /* \"#utility.yul\":7:82   */\n      swap1\n      jump\t// out\n        /* \"#utility.yul\":88:205   */\n    tag_28:\n        /* \"#utility.yul\":197:198   */\n      0x00\n        /* \"#utility.yul\":194:195   */\n      dup1\n        /* \"#utility.yul\":187:199   */\n      revert\n        /* \"#utility.yul\":211:328   */\n    tag_29:\n        /* \"#utility.yul\":320:321   */\n      0x00\n        /* \"#utility.yul\":317:318   */\n      dup1\n        /* \"#utility.yul\":310:322   */\n      revert\n        /* \"#utility.yul\":334:411   */\n    tag_30:\n        /* \"#utility.yul\":371:378   */\n      0x00\n        /* \"#utility.yul\":400:405   */\n      dup2\n        /* \"#utility.yul\":389:405   */\n      swap1\n      pop\n        /* \"#utility.yul\":334:411   */\n      swap2\n      swap1\n      pop\n      jump\t// out\n        /* \"#utility.yul\":417:539   */\n    tag_31:\n        /* \"#utility.yul\":490:514   */\n      tag_79\n        /* \"#utility.yul\":508:513   */\n      dup2\n        /* \"#utility.yul\":490:514   */\n      tag_30\n      jump\t// in\n    tag_79:\n        /* \"#utility.yul\":483:488   */\n      dup2\n        /* \"#utility.yul\":480:515   */\n      eq\n        /* \"#utility.yul\":470:533   */\n      tag_80\n      jumpi\n        /* \"#utility.yul\":529:530   */\n      0x00\n        /* \"#utility.yul\":526:527   */\n      dup1\n        /* \"#utility.yul\":519:531   */\n      revert\n        /* \"#utility.yul\":470:533   */\n    tag_80:\n        /* \"#utility.yul\":417:539   */\n      pop\n      jump\t// out\n        /* \"#utility.yul\":545:684   */\n    tag_32:\n        /* \"#utility.yul\":591:596   */\n      0x00\n        /* \"#utility.yul\":629:635   */\n      dup2\n        /* \"#utility.yul\":616:636   */\n      calldataload\n        /* \"#utility.yul\":607:636   */\n      swap1\n      pop\n        /* \"#utility.yul\":645:678   */\n      tag_82\n        /* \"#utility.yul\":672:677   */\n      dup2\n        /* \"#utility.yul\":645:678   */\n      tag_31\n      jump\t// in\n    tag_82:\n        /* \"#utility.yul\":545:684   */\n      swap3\n      swap2\n      pop\n      pop\n      jump\t// out\n        /* \"#utility.yul\":690:807   */\n    tag_33:\n        /* \"#utility.yul\":799:800   */\n      0x00\n        /* \"#utility.yul\":796:797   */\n      dup1\n        /* \"#utility.yul\":789:801   */\n      revert\n        /* \"#utility.yul\":813:930   */\n    tag_34:\n        /* \"#utility.yul\":922:923   */\n      0x00\n        /* \"#utility.yul\":919:920   */\n      dup1\n        /* \"#utility.yul\":912:924   */\n      revert\n        /* \"#utility.yul\":936:1038   */\n    tag_35:\n        /* \"#utility.yul\":977:983   */\n      0x00\n        /* \"#utility.yul\":1028:1030   */\n      0x1f\n        /* \"#utility.yul\":1024:1031   */\n      not\n        /* \"#utility.yul\":1019:1021   */\n      0x1f\n        /* \"#utility.yul\":1012:1017   */\n      dup4\n        /* \"#utility.yul\":1008:1022   */\n      add\n        /* \"#utility.yul\":1004:1032   */\n      and\n        /* \"#utility.yul\":994:1032   */\n      swap1\n      pop\n        /* \"#utility.yul\":936:1038   */\n      swap2\n      swap1\n      pop\n      jump\t// out\n        /* \"#utility.yul\":1044:1224   */\n    tag_36:\n        /* \"#utility.yul\":1092:1169   */\n      0x4e487b7100000000000000000000000000000000000000000000000000000000\n        /* \"#utility.yul\":1089:1090   */\n      0x00\n        /* \"#utility.yul\":1082:1170   */\n      mstore\n        /* \"#utility.yul\":1189:1193   */\n      0x41\n        /* \"#utility.yul\":1186:1187   */\n      0x04\n        /* \"#utility.yul\":1179:1194   */\n      mstore\n        /* \"#utility.yul\":1213:1217   */\n      0x24\n        /* \"#utility.yul\":1210:1211   */\n      0x00\n        /* \"#utility.yul\":1203:1218   */\n      revert\n        /* \"#utility.yul\":1230:1511   */\n    tag_37:\n        /* \"#utility.yul\":1313:1340   */\n      tag_88\n        /* \"#utility.yul\":1335:1339   */\n      dup3\n        /* \"#utility.yul\":1313:1340   */\n      tag_35\n      jump\t// in\n    tag_88:\n        /* \"#utility.yul\":1305:1311   */\n      dup2\n        /* \"#utility.yul\":1301:1341   */\n      add\n        /* \"#utility.yul\":1443:1449   */\n      dup2\n        /* \"#utility.yul\":1431:1441   */\n      dup2\n        /* \"#utility.yul\":1428:1450   */\n      lt\n        /* \"#utility.yul\":1407:1425   */\n      0xffffffffffffffff\n        /* \"#utility.yul\":1395:1405   */\n      dup3\n        /* \"#utility.yul\":1392:1426   */\n      gt\n        /* \"#utility.yul\":1389:1451   */\n      or\n        /* \"#utility.yul\":1386:1474   */\n      iszero\n      tag_89\n      jumpi\n        /* \"#utility.yul\":1454:1472   */\n      tag_90\n      tag_36\n      jump\t// in\n    tag_90:\n        /* \"#utility.yul\":1386:1474   */\n    tag_89:\n        /* \"#utility.yul\":1494:1504   */\n      dup1\n        /* \"#utility.yul\":1490:1492   */\n      0x40\n        /* \"#utility.yul\":1483:1505   */\n      mstore\n        /* \"#utility.yul\":1273:1511   */\n      pop\n        /* \"#utility.yul\":1230:1511   */\n      pop\n      pop\n      jump\t// out\n        /* \"#utility.yul\":1517:1646   */\n    tag_38:\n        /* \"#utility.yul\":1551:1557   */\n      0x00\n        /* \"#utility.yul\":1578:1598   */\n      tag_92\n      tag_27\n      jump\t// in\n    tag_92:\n        /* \"#utility.yul\":1568:1598   */\n      swap1\n      pop\n        /* \"#utility.yul\":1607:1640   */\n      tag_93\n        /* \"#utility.yul\":1635:1639   */\n      dup3\n        /* \"#utility.yul\":1627:1633   */\n      dup3\n        /* \"#utility.yul\":1607:1640   */\n      tag_37\n      jump\t// in\n    tag_93:\n        /* \"#utility.yul\":1517:1646   */\n      swap2\n      swap1\n      pop\n      jump\t// out\n        /* \"#utility.yul\":1652:1960   */\n    tag_39:\n        /* \"#utility.yul\":1714:1718   */\n      0x00\n        /* \"#utility.yul\":1804:1822   */\n      0xffffffffffffffff\n        /* \"#utility.yul\":1796:1802   */\n      dup3\n        /* \"#utility.yul\":1793:1823   */\n      gt\n        /* \"#utility.yul\":1790:1846   */\n      iszero\n      tag_95\n      jumpi\n        /* \"#utility.yul\":1826:1844   */\n      tag_96\n      tag_36\n      jump\t// in\n    tag_96:\n        /* \"#utility.yul\":1790:1846   */\n    tag_95:\n        /* \"#utility.yul\":1864:1893   */\n      tag_97\n        /* \"#utility.yul\":1886:1892   */\n      dup3\n        /* \"#utility.yul\":1864:1893   */\n      tag_35\n      jump\t// in\n    tag_97:\n        /* \"#utility.yul\":1856:1893   */\n      swap1\n      pop\n        /* \"#utility.yul\":1948:1952   */\n      0x20\n        /* \"#utility.yul\":1942:1946   */\n      dup2\n        /* \"#utility.yul\":1938:1953   */\n      add\n        /* \"#utility.yul\":1930:1953   */\n      swap1\n      pop\n        /* \"#utility.yul\":1652:1960   */\n      swap2\n      swap1\n      pop\n      jump\t// out\n        /* \"#utility.yul\":1966:2112   */\n    tag_40:\n        /* \"#utility.yul\":2063:2069   */\n      dup3\n        /* \"#utility.yul\":2058:2061   */\n      dup2\n        /* \"#utility.yul\":2053:2056   */\n      dup4\n        /* \"#utility.yul\":2040:2070   */\n      calldatacopy\n        /* \"#utility.yul\":2104:2105   */\n      0x00\n        /* \"#utility.yul\":2095:2101   */\n      dup4\n        /* \"#utility.yul\":2090:2093   */\n      dup4\n        /* \"#utility.yul\":2086:2102   */\n      add\n        /* \"#utility.yul\":2079:2106   */\n      mstore\n        /* \"#utility.yul\":1966:2112   */\n      pop\n      pop\n      pop\n      jump\t// out\n        /* \"#utility.yul\":2118:2543   */\n    tag_41:\n        /* \"#utility.yul\":2196:2201   */\n      0x00\n        /* \"#utility.yul\":2221:2287   */\n      tag_100\n        /* \"#utility.yul\":2237:2286   */\n      tag_101\n        /* \"#utility.yul\":2279:2285   */\n      dup5\n        /* \"#utility.yul\":2237:2286   */\n      tag_39\n      jump\t// in\n    tag_101:\n        /* \"#utility.yul\":2221:2287   */\n      tag_38\n      jump\t// in\n    tag_100:\n        /* \"#utility.yul\":2212:2287   */\n      swap1\n      pop\n        /* \"#utility.yul\":2310:2316   */\n      dup3\n        /* \"#utility.yul\":2303:2308   */\n      dup2\n        /* \"#utility.yul\":2296:2317   */\n      mstore\n        /* \"#utility.yul\":2348:2352   */\n      0x20\n        /* \"#utility.yul\":2341:2346   */\n      dup2\n        /* \"#utility.yul\":2337:2353   */\n      add\n        /* \"#utility.yul\":2386:2389   */\n      dup5\n        /* \"#utility.yul\":2377:2383   */\n      dup5\n        /* \"#utility.yul\":2372:2375   */\n      dup5\n        /* \"#utility.yul\":2368:2384   */\n      add\n        /* \"#utility.yul\":2365:2390   */\n      gt\n        /* \"#utility.yul\":2362:2474   */\n      iszero\n      tag_102\n      jumpi\n        /* \"#utility.yul\":2393:2472   */\n      tag_103\n      tag_34\n      jump\t// in\n    tag_103:\n        /* \"#utility.yul\":2362:2474   */\n    tag_102:\n        /* \"#utility.yul\":2483:2537   */\n      tag_104\n        /* \"#utility.yul\":2530:2536   */\n      dup5\n        /* \"#utility.yul\":2525:2528   */\n      dup3\n        /* \"#utility.yul\":2520:2523   */\n      dup6\n        /* \"#utility.yul\":2483:2537   */\n      tag_40\n      jump\t// in\n    tag_104:\n        /* \"#utility.yul\":2202:2543   */\n      pop\n        /* \"#utility.yul\":2118:2543   */\n      swap4\n      swap3\n      pop\n      pop\n      pop\n      jump\t// out\n        /* \"#utility.yul\":2563:2903   */\n    tag_42:\n        /* \"#utility.yul\":2619:2624   */\n      0x00\n        /* \"#utility.yul\":2668:2671   */\n      dup3\n        /* \"#utility.yul\":2661:2665   */\n      0x1f\n        /* \"#utility.yul\":2653:2659   */\n      dup4\n        /* \"#utility.yul\":2649:2666   */\n      add\n        /* \"#utility.yul\":2645:2672   */\n      slt\n        /* \"#utility.yul\":2635:2757   */\n      tag_106\n      jumpi\n        /* \"#utility.yul\":2676:2755   */\n      tag_107\n      tag_33\n      jump\t// in\n    tag_107:\n        /* \"#utility.yul\":2635:2757   */\n    tag_106:\n        /* \"#utility.yul\":2793:2799   */\n      dup2\n        /* \"#utility.yul\":2780:2800   */\n      calldataload\n        /* \"#utility.yul\":2818:2897   */\n      tag_108\n        /* \"#utility.yul\":2893:2896   */\n      dup5\n        /* \"#utility.yul\":2885:2891   */\n      dup3\n        /* \"#utility.yul\":2878:2882   */\n      0x20\n        /* \"#utility.yul\":2870:2876   */\n      dup7\n        /* \"#utility.yul\":2866:2883   */\n      add\n        /* \"#utility.yul\":2818:2897   */\n      tag_41\n      jump\t// in\n    tag_108:\n        /* \"#utility.yul\":2809:2897   */\n      swap2\n      pop\n        /* \"#utility.yul\":2625:2903   */\n      pop\n        /* \"#utility.yul\":2563:2903   */\n      swap3\n      swap2\n      pop\n      pop\n      jump\t// out\n        /* \"#utility.yul\":2909:3708   */\n    tag_7:\n        /* \"#utility.yul\":2996:3002   */\n      0x00\n        /* \"#utility.yul\":3004:3010   */\n      dup1\n        /* \"#utility.yul\":3012:3018   */\n      0x00\n        /* \"#utility.yul\":3061:3063   */\n      0x60\n        /* \"#utility.yul\":3049:3058   */\n      dup5\n        /* \"#utility.yul\":3040:3047   */\n      dup7\n        /* \"#utility.yul\":3036:3059   */\n      sub\n        /* \"#utility.yul\":3032:3064   */\n      slt\n        /* \"#utility.yul\":3029:3148   */\n      iszero\n      tag_110\n      jumpi\n        /* \"#utility.yul\":3067:3146   */\n      tag_111\n      tag_28\n      jump\t// in\n    tag_111:\n        /* \"#utility.yul\":3029:3148   */\n    tag_110:\n        /* \"#utility.yul\":3187:3188   */\n      0x00\n        /* \"#utility.yul\":3212:3265   */\n      tag_112\n        /* \"#utility.yul\":3257:3264   */\n      dup7\n        /* \"#utility.yul\":3248:3254   */\n      dup3\n        /* \"#utility.yul\":3237:3246   */\n      dup8\n        /* \"#utility.yul\":3233:3255   */\n      add\n        /* \"#utility.yul\":3212:3265   */\n      tag_32\n      jump\t// in\n    tag_112:\n        /* \"#utility.yul\":3202:3265   */\n      swap4\n      pop\n        /* \"#utility.yul\":3158:3275   */\n      pop\n        /* \"#utility.yul\":3314:3316   */\n      0x20\n        /* \"#utility.yul\":3340:3393   */\n      tag_113\n        /* \"#utility.yul\":3385:3392   */\n      dup7\n        /* \"#utility.yul\":3376:3382   */\n      dup3\n        /* \"#utility.yul\":3365:3374   */\n      dup8\n        /* \"#utility.yul\":3361:3383   */\n      add\n        /* \"#utility.yul\":3340:3393   */\n      tag_32\n      jump\t// in\n    tag_113:\n        /* \"#utility.yul\":3330:3393   */\n      swap3\n      pop\n        /* \"#utility.yul\":3285:3403   */\n      pop\n        /* \"#utility.yul\":3470:3472   */\n      0x40\n        /* \"#utility.yul\":3459:3468   */\n      dup5\n        /* \"#utility.yul\":3455:3473   */\n      add\n        /* \"#utility.yul\":3442:3474   */\n      calldataload\n        /* \"#utility.yul\":3501:3519   */\n      0xffffffffffffffff\n        /* \"#utility.yul\":3493:3499   */\n      dup2\n        /* \"#utility.yul\":3490:3520   */\n      gt\n        /* \"#utility.yul\":3487:3604   */\n      iszero\n      tag_114\n      jumpi\n        /* \"#utility.yul\":3523:3602   */\n      tag_115\n      tag_29\n      jump\t// in\n    tag_115:\n        /* \"#utility.yul\":3487:3604   */\n    tag_114:\n        /* \"#utility.yul\":3628:3691   */\n      tag_116\n        /* \"#utility.yul\":3683:3690   */\n      dup7\n        /* \"#utility.yul\":3674:3680   */\n      dup3\n        /* \"#utility.yul\":3663:3672   */\n      dup8\n        /* \"#utility.yul\":3659:3681   */\n      add\n        /* \"#utility.yul\":3628:3691   */\n      tag_42\n      jump\t// in\n    tag_116:\n        /* \"#utility.yul\":3618:3691   */\n      swap2\n      pop\n        /* \"#utility.yul\":3413:3701   */\n      pop\n        /* \"#utility.yul\":2909:3708   */\n      swap3\n      pop\n      swap3\n      pop\n      swap3\n      jump\t// out\n        /* \"#utility.yul\":3714:4043   */\n    tag_11:\n        /* \"#utility.yul\":3773:3779   */\n      0x00\n        /* \"#utility.yul\":3822:3824   */\n      0x20\n        /* \"#utility.yul\":3810:3819   */\n      dup3\n        /* \"#utility.yul\":3801:3808   */\n      dup5\n        /* \"#utility.yul\":3797:3820   */\n      sub\n        /* \"#utility.yul\":3793:3825   */\n      slt\n        /* \"#utility.yul\":3790:3909   */\n      iszero\n      tag_118\n      jumpi\n        /* \"#utility.yul\":3828:3907   */\n      tag_119\n      tag_28\n      jump\t// in\n    tag_119:\n        /* \"#utility.yul\":3790:3909   */\n    tag_118:\n        /* \"#utility.yul\":3948:3949   */\n      0x00\n        /* \"#utility.yul\":3973:4026   */\n      tag_120\n        /* \"#utility.yul\":4018:4025   */\n      dup5\n        /* \"#utility.yul\":4009:4015   */\n      dup3\n        /* \"#utility.yul\":3998:4007   */\n      dup6\n        /* \"#utility.yul\":3994:4016   */\n      add\n        /* \"#utility.yul\":3973:4026   */\n      tag_32\n      jump\t// in\n    tag_120:\n        /* \"#utility.yul\":3963:4026   */\n      swap2\n      pop\n        /* \"#utility.yul\":3919:4036   */\n      pop\n        /* \"#utility.yul\":3714:4043   */\n      swap3\n      swap2\n      pop\n      pop\n      jump\t// out\n        /* \"#utility.yul\":4049:4218   */\n    tag_43:\n        /* \"#utility.yul\":4133:4144   */\n      0x00\n        /* \"#utility.yul\":4167:4173   */\n      dup3\n        /* \"#utility.yul\":4162:4165   */\n      dup3\n        /* \"#utility.yul\":4155:4174   */\n      mstore\n        /* \"#utility.yul\":4207:4211   */\n      0x20\n        /* \"#utility.yul\":4202:4205   */\n      dup3\n        /* \"#utility.yul\":4198:4212   */\n      add\n        /* \"#utility.yul\":4183:4212   */\n      swap1\n      pop\n        /* \"#utility.yul\":4049:4218   */\n      swap3\n      swap2\n      pop\n      pop\n      jump\t// out\n        /* \"#utility.yul\":4224:4444   */\n    tag_44:\n        /* \"#utility.yul\":4364:4398   */\n      0x4461746120776974682074686973206b657920616c7265616479206578697374\n        /* \"#utility.yul\":4360:4361   */\n      0x00\n        /* \"#utility.yul\":4352:4358   */\n      dup3\n        /* \"#utility.yul\":4348:4362   */\n      add\n        /* \"#utility.yul\":4341:4399   */\n      mstore\n        /* \"#utility.yul\":4433:4436   */\n      0x7300000000000000000000000000000000000000000000000000000000000000\n        /* \"#utility.yul\":4428:4430   */\n      0x20\n        /* \"#utility.yul\":4420:4426   */\n      dup3\n        /* \"#utility.yul\":4416:4431   */\n      add\n        /* \"#utility.yul\":4409:4437   */\n      mstore\n        /* \"#utility.yul\":4224:4444   */\n      pop\n      jump\t// out\n        /* \"#utility.yul\":4450:4816   */\n    tag_45:\n        /* \"#utility.yul\":4592:4595   */\n      0x00\n        /* \"#utility.yul\":4613:4680   */\n      tag_124\n        /* \"#utility.yul\":4677:4679   */\n      0x21\n        /* \"#utility.yul\":4672:4675   */\n      dup4\n        /* \"#utility.yul\":4613:4680   */\n      tag_43\n      jump\t// in\n    tag_124:\n        /* \"#utility.yul\":4606:4680   */\n      swap2\n      pop\n        /* \"#utility.yul\":4689:4782   */\n      tag_125\n        /* \"#utility.yul\":4778:4781   */\n      dup3\n        /* \"#utility.yul\":4689:4782   */\n      tag_44\n      jump\t// in\n    tag_125:\n        /* \"#utility.yul\":4807:4809   */\n      0x40\n        /* \"#utility.yul\":4802:4805   */\n      dup3\n        /* \"#utility.yul\":4798:4810   */\n      add\n        /* \"#utility.yul\":4791:4810   */\n      swap1\n      pop\n        /* \"#utility.yul\":4450:4816   */\n      swap2\n      swap1\n      pop\n      jump\t// out\n        /* \"#utility.yul\":4822:5241   */\n    tag_16:\n        /* \"#utility.yul\":4988:4992   */\n      0x00\n        /* \"#utility.yul\":5026:5028   */\n      0x20\n        /* \"#utility.yul\":5015:5024   */\n      dup3\n        /* \"#utility.yul\":5011:5029   */\n      add\n        /* \"#utility.yul\":5003:5029   */\n      swap1\n      pop\n        /* \"#utility.yul\":5075:5084   */\n      dup2\n        /* \"#utility.yul\":5069:5073   */\n      dup2\n        /* \"#utility.yul\":5065:5085   */\n      sub\n        /* \"#utility.yul\":5061:5062   */\n      0x00\n        /* \"#utility.yul\":5050:5059   */\n      dup4\n        /* \"#utility.yul\":5046:5063   */\n      add\n        /* \"#utility.yul\":5039:5086   */\n      mstore\n        /* \"#utility.yul\":5103:5234   */\n      tag_127\n        /* \"#utility.yul\":5229:5233   */\n      dup2\n        /* \"#utility.yul\":5103:5234   */\n      tag_45\n      jump\t// in\n    tag_127:\n        /* \"#utility.yul\":5095:5234   */\n      swap1\n      pop\n        /* \"#utility.yul\":4822:5241   */\n      swap2\n      swap1\n      pop\n      jump\t// out\n        /* \"#utility.yul\":5247:5346   */\n    tag_46:\n        /* \"#utility.yul\":5299:5305   */\n      0x00\n        /* \"#utility.yul\":5333:5338   */\n      dup2\n        /* \"#utility.yul\":5327:5339   */\n      mload\n        /* \"#utility.yul\":5317:5339   */\n      swap1\n      pop\n        /* \"#utility.yul\":5247:5346   */\n      swap2\n      swap1\n      pop\n      jump\t// out\n        /* \"#utility.yul\":5352:5532   */\n    tag_47:\n        /* \"#utility.yul\":5400:5477   */\n      0x4e487b7100000000000000000000000000000000000000000000000000000000\n        /* \"#utility.yul\":5397:5398   */\n      0x00\n        /* \"#utility.yul\":5390:5478   */\n      mstore\n        /* \"#utility.yul\":5497:5501   */\n      0x22\n        /* \"#utility.yul\":5494:5495   */\n      0x04\n        /* \"#utility.yul\":5487:5502   */\n      mstore\n        /* \"#utility.yul\":5521:5525   */\n      0x24\n        /* \"#utility.yul\":5518:5519   */\n      0x00\n        /* \"#utility.yul\":5511:5526   */\n      revert\n        /* \"#utility.yul\":5538:5858   */\n    tag_48:\n        /* \"#utility.yul\":5582:5588   */\n      0x00\n        /* \"#utility.yul\":5619:5620   */\n      0x02\n        /* \"#utility.yul\":5613:5617   */\n      dup3\n        /* \"#utility.yul\":5609:5621   */\n      div\n        /* \"#utility.yul\":5599:5621   */\n      swap1\n      pop\n        /* \"#utility.yul\":5666:5667   */\n      0x01\n        /* \"#utility.yul\":5660:5664   */\n      dup3\n        /* \"#utility.yul\":5656:5668   */\n      and\n        /* \"#utility.yul\":5687:5705   */\n      dup1\n        /* \"#utility.yul\":5677:5758   */\n      tag_131\n      jumpi\n        /* \"#utility.yul\":5743:5747   */\n      0x7f\n        /* \"#utility.yul\":5735:5741   */\n      dup3\n        /* \"#utility.yul\":5731:5748   */\n      and\n        /* \"#utility.yul\":5721:5748   */\n      swap2\n      pop\n        /* \"#utility.yul\":5677:5758   */\n    tag_131:\n        /* \"#utility.yul\":5805:5807   */\n      0x20\n        /* \"#utility.yul\":5797:5803   */\n      dup3\n        /* \"#utility.yul\":5794:5808   */\n      lt\n        /* \"#utility.yul\":5774:5792   */\n      dup2\n        /* \"#utility.yul\":5771:5809   */\n      sub\n        /* \"#utility.yul\":5768:5852   */\n      tag_132\n      jumpi\n        /* \"#utility.yul\":5824:5842   */\n      tag_133\n      tag_47\n      jump\t// in\n    tag_133:\n        /* \"#utility.yul\":5768:5852   */\n    tag_132:\n        /* \"#utility.yul\":5589:5858   */\n      pop\n        /* \"#utility.yul\":5538:5858   */\n      swap2\n      swap1\n      pop\n      jump\t// out\n        /* \"#utility.yul\":5864:6005   */\n    tag_49:\n        /* \"#utility.yul\":5913:5917   */\n      0x00\n        /* \"#utility.yul\":5936:5939   */\n      dup2\n        /* \"#utility.yul\":5928:5939   */\n      swap1\n      pop\n        /* \"#utility.yul\":5959:5962   */\n      dup2\n        /* \"#utility.yul\":5956:5957   */\n      0x00\n        /* \"#utility.yul\":5949:5963   */\n      mstore\n        /* \"#utility.yul\":5993:5997   */\n      0x20\n        /* \"#utility.yul\":5990:5991   */\n      0x00\n        /* \"#utility.yul\":5980:5998   */\n      keccak256\n        /* \"#utility.yul\":5972:5998   */\n      swap1\n      pop\n        /* \"#utility.yul\":5864:6005   */\n      swap2\n      swap1\n      pop\n      jump\t// out\n        /* \"#utility.yul\":6011:6104   */\n    tag_50:\n        /* \"#utility.yul\":6048:6054   */\n      0x00\n        /* \"#utility.yul\":6095:6097   */\n      0x20\n        /* \"#utility.yul\":6090:6092   */\n      0x1f\n        /* \"#utility.yul\":6083:6088   */\n      dup4\n        /* \"#utility.yul\":6079:6093   */\n      add\n        /* \"#utility.yul\":6075:6098   */\n      div\n        /* \"#utility.yul\":6065:6098   */\n      swap1\n      pop\n        /* \"#utility.yul\":6011:6104   */\n      swap2\n      swap1\n      pop\n      jump\t// out\n        /* \"#utility.yul\":6110:6217   */\n    tag_51:\n        /* \"#utility.yul\":6154:6162   */\n      0x00\n        /* \"#utility.yul\":6204:6209   */\n      dup3\n        /* \"#utility.yul\":6198:6202   */\n      dup3\n        /* \"#utility.yul\":6194:6210   */\n      shl\n        /* \"#utility.yul\":6173:6210   */\n      swap1\n      pop\n        /* \"#utility.yul\":6110:6217   */\n      swap3\n      swap2\n      pop\n      pop\n      jump\t// out\n        /* \"#utility.yul\":6223:6616   */\n    tag_52:\n        /* \"#utility.yul\":6292:6298   */\n      0x00\n        /* \"#utility.yul\":6342:6343   */\n      0x08\n        /* \"#utility.yul\":6330:6340   */\n      dup4\n        /* \"#utility.yul\":6326:6344   */\n      mul\n        /* \"#utility.yul\":6365:6462   */\n      tag_138\n        /* \"#utility.yul\":6395:6461   */\n      0xffffffffffffffffffffffffffffffffffffffffffffffffffffffffffffffff\n        /* \"#utility.yul\":6384:6393   */\n      dup3\n        /* \"#utility.yul\":6365:6462   */\n      tag_51\n      jump\t// in\n    tag_138:\n        /* \"#utility.yul\":6483:6522   */\n      tag_139\n        /* \"#utility.yul\":6513:6521   */\n      dup7\n        /* \"#utility.yul\":6502:6511   */\n      dup4\n        /* \"#utility.yul\":6483:6522   */\n      tag_51\n      jump\t// in\n    tag_139:\n        /* \"#utility.yul\":6471:6522   */\n      swap6\n      pop\n        /* \"#utility.yul\":6555:6559   */\n      dup1\n        /* \"#utility.yul\":6551:6560   */\n      not\n        /* \"#utility.yul\":6544:6549   */\n      dup5\n        /* \"#utility.yul\":6540:6561   */\n      and\n        /* \"#utility.yul\":6531:6561   */\n      swap4\n      pop\n        /* \"#utility.yul\":6604:6608   */\n      dup1\n        /* \"#utility.yul\":6594:6602   */\n      dup7\n        /* \"#utility.yul\":6590:6609   */\n      and\n        /* \"#utility.yul\":6583:6588   */\n      dup5\n        /* \"#utility.yul\":6580:6610   */\n      or\n        /* \"#utility.yul\":6570:6610   */\n      swap3\n      pop\n        /* \"#utility.yul\":6299:6616   */\n      pop\n      pop\n        /* \"#utility.yul\":6223:6616   */\n      swap4\n      swap3\n      pop\n      pop\n      pop\n      jump\t// out\n        /* \"#utility.yul\":6622:6682   */\n    tag_53:\n        /* \"#utility.yul\":6650:6653   */\n      0x00\n        /* \"#utility.yul\":6671:6676   */\n      dup2\n        /* \"#utility.yul\":6664:6676   */\n      swap1\n      pop\n        /* \"#utility.yul\":6622:6682   */\n      swap2\n      swap1\n      pop\n      jump\t// out\n        /* \"#utility.yul\":6688:6830   */\n    tag_54:\n        /* \"#utility.yul\":6738:6747   */\n      0x00\n        /* \"#utility.yul\":6771:6824   */\n      tag_142\n        /* \"#utility.yul\":6789:6823   */\n      tag_143\n        /* \"#utility.yul\":6798:6822   */\n      tag_144\n        /* \"#utility.yul\":6816:6821   */\n      dup5\n        /* \"#utility.yul\":6798:6822   */\n      tag_30\n      jump\t// in\n    tag_144:\n        /* \"#utility.yul\":6789:6823   */\n      tag_53\n      jump\t// in\n    tag_143:\n        /* \"#utility.yul\":6771:6824   */\n      tag_30\n      jump\t// in\n    tag_142:\n        /* \"#utility.yul\":6758:6824   */\n      swap1\n      pop\n        /* \"#utility.yul\":6688:6830   */\n      swap2\n      swap1\n      pop\n      jump\t// out\n        /* \"#utility.yul\":6836:6911   */\n    tag_55:\n        /* \"#utility.yul\":6879:6882   */\n      0x00\n        /* \"#utility.yul\":6900:6905   */\n      dup2\n        /* \"#utility.yul\":6893:6905   */\n      swap1\n      pop\n        /* \"#utility.yul\":6836:6911   */\n      swap2\n      swap1\n      pop\n      jump\t// out\n        /* \"#utility.yul\":6917:7186   */\n    tag_56:\n        /* \"#utility.yul\":7027:7066   */\n      tag_147\n        /* \"#utility.yul\":7058:7065   */\n      dup4\n        /* \"#utility.yul\":7027:7066   */\n      tag_54\n      jump\t// in\n    tag_147:\n        /* \"#utility.yul\":7088:7179   */\n      tag_148\n        /* \"#utility.yul\":7137:7178   */\n      tag_149\n        /* \"#utility.yul\":7161:7177   */\n      dup3\n        /* \"#utility.yul\":7137:7178   */\n      tag_55\n      jump\t// in\n    tag_149:\n        /* \"#utility.yul\":7129:7135   */\n      dup5\n        /* \"#utility.yul\":7122:7126   */\n      dup5\n        /* \"#utility.yul\":7116:7127   */\n      sload\n        /* \"#utility.yul\":7088:7179   */\n      tag_52\n      jump\t// in\n    tag_148:\n        /* \"#utility.yul\":7082:7086   */\n      dup3\n        /* \"#utility.yul\":7075:7180   */\n      sstore\n        /* \"#utility.yul\":6993:7186   */\n      pop\n        /* \"#utility.yul\":6917:7186   */\n      pop\n      pop\n      pop\n      jump\t// out\n        /* \"#utility.yul\":7192:7265   */\n    tag_57:\n        /* \"#utility.yul\":7237:7240   */\n      0x00\n        /* \"#utility.yul\":7192:7265   */\n      swap1\n      jump\t// out\n        /* \"#utility.yul\":7271:7460   */\n    tag_58:\n        /* \"#utility.yul\":7348:7380   */\n      tag_152\n      tag_57\n      jump\t// in\n    tag_152:\n        /* \"#utility.yul\":7389:7454   */\n      tag_153\n        /* \"#utility.yul\":7447:7453   */\n      dup2\n        /* \"#utility.yul\":7439:7445   */\n      dup5\n        /* \"#utility.yul\":7433:7437   */\n      dup5\n        /* \"#utility.yul\":7389:7454   */\n      tag_56\n      jump\t// in\n    tag_153:\n        /* \"#utility.yul\":7324:7460   */\n      pop\n        /* \"#utility.yul\":7271:7460   */\n      pop\n      pop\n      jump\t// out\n        /* \"#utility.yul\":7466:7652   */\n    tag_59:\n        /* \"#utility.yul\":7526:7646   */\n    tag_155:\n        /* \"#utility.yul\":7543:7546   */\n      dup2\n        /* \"#utility.yul\":7536:7541   */\n      dup2\n        /* \"#utility.yul\":7533:7547   */\n      lt\n        /* \"#utility.yul\":7526:7646   */\n      iszero\n      tag_157\n      jumpi\n        /* \"#utility.yul\":7597:7636   */\n      tag_158\n        /* \"#utility.yul\":7634:7635   */\n      0x00\n        /* \"#utility.yul\":7627:7632   */\n      dup3\n        /* \"#utility.yul\":7597:7636   */\n      tag_58\n      jump\t// in\n    tag_158:\n        /* \"#utility.yul\":7570:7571   */\n      0x01\n        /* \"#utility.yul\":7563:7568   */\n      dup2\n        /* \"#utility.yul\":7559:7572   */\n      add\n        /* \"#utility.yul\":7550:7572   */\n      swap1\n      pop\n        /* \"#utility.yul\":7526:7646   */\n      jump(tag_155)\n    tag_157:\n        /* \"#utility.yul\":7466:7652   */\n      pop\n      pop\n      jump\t// out\n        /* \"#utility.yul\":7658:8201   */\n    tag_60:\n        /* \"#utility.yul\":7759:7761   */\n      0x1f\n        /* \"#utility.yul\":7754:7757   */\n      dup3\n        /* \"#utility.yul\":7751:7762   */\n      gt\n        /* \"#utility.yul\":7748:8194   */\n      iszero\n      tag_160\n      jumpi\n        /* \"#utility.yul\":7793:7831   */\n      tag_161\n        /* \"#utility.yul\":7825:7830   */\n      dup2\n        /* \"#utility.yul\":7793:7831   */\n      tag_49\n      jump\t// in\n    tag_161:\n        /* \"#utility.yul\":7877:7906   */\n      tag_162\n        /* \"#utility.yul\":7895:7905   */\n      dup5\n        /* \"#utility.yul\":7877:7906   */\n      tag_50\n      jump\t// in\n    tag_162:\n        /* \"#utility.yul\":7867:7875   */\n      dup2\n        /* \"#utility.yul\":7863:7907   */\n      add\n        /* \"#utility.yul\":8060:8062   */\n      0x20\n        /* \"#utility.yul\":8048:8058   */\n      dup6\n        /* \"#utility.yul\":8045:8063   */\n      lt\n        /* \"#utility.yul\":8042:8091   */\n      iszero\n      tag_163\n      jumpi\n        /* \"#utility.yul\":8081:8089   */\n      dup2\n        /* \"#utility.yul\":8066:8089   */\n      swap1\n      pop\n        /* \"#utility.yul\":8042:8091   */\n    tag_163:\n        /* \"#utility.yul\":8104:8184   */\n      tag_164\n        /* \"#utility.yul\":8160:8182   */\n      tag_165\n        /* \"#utility.yul\":8178:8181   */\n      dup6\n        /* \"#utility.yul\":8160:8182   */\n      tag_50\n      jump\t// in\n    tag_165:\n        /* \"#utility.yul\":8150:8158   */\n      dup4\n        /* \"#utility.yul\":8146:8183   */\n      add\n        /* \"#utility.yul\":8133:8144   */\n      dup3\n        /* \"#utility.yul\":8104:8184   */\n      tag_59\n      jump\t// in\n    tag_164:\n        /* \"#utility.yul\":7763:8194   */\n      pop\n      pop\n        /* \"#utility.yul\":7748:8194   */\n    tag_160:\n        /* \"#utility.yul\":7658:8201   */\n      pop\n      pop\n      pop\n      jump\t// out\n        /* \"#utility.yul\":8207:8324   */\n    tag_61:\n        /* \"#utility.yul\":8261:8269   */\n      0x00\n        /* \"#utility.yul\":8311:8316   */\n      dup3\n        /* \"#utility.yul\":8305:8309   */\n      dup3\n        /* \"#utility.yul\":8301:8317   */\n      shr\n        /* \"#utility.yul\":8280:8317   */\n      swap1\n      pop\n        /* \"#utility.yul\":8207:8324   */\n      swap3\n      swap2\n      pop\n      pop\n      jump\t// out\n        /* \"#utility.yul\":8330:8499   */\n    tag_62:\n        /* \"#utility.yul\":8374:8380   */\n      0x00\n        /* \"#utility.yul\":8407:8458   */\n      tag_168\n        /* \"#utility.yul\":8455:8456   */\n      0x00\n        /* \"#utility.yul\":8451:8457   */\n      not\n        /* \"#utility.yul\":8443:8448   */\n      dup5\n        /* \"#utility.yul\":8440:8441   */\n      0x08\n        /* \"#utility.yul\":8436:8449   */\n      mul\n        /* \"#utility.yul\":8407:8458   */\n      tag_61\n      jump\t// in\n    tag_168:\n        /* \"#utility.yul\":8403:8459   */\n      not\n        /* \"#utility.yul\":8488:8492   */\n      dup1\n        /* \"#utility.yul\":8482:8486   */\n      dup4\n        /* \"#utility.yul\":8478:8493   */\n      and\n        /* \"#utility.yul\":8468:8493   */\n      swap2\n      pop\n        /* \"#utility.yul\":8381:8499   */\n      pop\n        /* \"#utility.yul\":8330:8499   */\n      swap3\n      swap2\n      pop\n      pop\n      jump\t// out\n        /* \"#utility.yul\":8504:8799   */\n    tag_63:\n        /* \"#utility.yul\":8580:8584   */\n      0x00\n        /* \"#utility.yul\":8726:8755   */\n      tag_170\n        /* \"#utility.yul\":8751:8754   */\n      dup4\n        /* \"#utility.yul\":8745:8749   */\n      dup4\n        /* \"#utility.yul\":8726:8755   */\n      tag_62\n      jump\t// in\n    tag_170:\n        /* \"#utility.yul\":8718:8755   */\n      swap2\n      pop\n        /* \"#utility.yul\":8788:8791   */\n      dup3\n        /* \"#utility.yul\":8785:8786   */\n      0x02\n        /* \"#utility.yul\":8781:8792   */\n      mul\n        /* \"#utility.yul\":8775:8779   */\n      dup3\n        /* \"#utility.yul\":8772:8793   */\n      or\n        /* \"#utility.yul\":8764:8793   */\n      swap1\n      pop\n        /* \"#utility.yul\":8504:8799   */\n      swap3\n      swap2\n      pop\n      pop\n      jump\t// out\n        /* \"#utility.yul\":8804:10199   */\n    tag_18:\n        /* \"#utility.yul\":8921:8958   */\n      tag_172\n        /* \"#utility.yul\":8954:8957   */\n      dup3\n        /* \"#utility.yul\":8921:8958   */\n      tag_46\n      jump\t// in\n    tag_172:\n        /* \"#utility.yul\":9023:9041   */\n      0xffffffffffffffff\n        /* \"#utility.yul\":9015:9021   */\n      dup2\n        /* \"#utility.yul\":9012:9042   */\n      gt\n        /* \"#utility.yul\":9009:9065   */\n      iszero\n      tag_173\n      jumpi\n        /* \"#utility.yul\":9045:9063   */\n      tag_174\n      tag_36\n      jump\t// in\n    tag_174:\n        /* \"#utility.yul\":9009:9065   */\n    tag_173:\n        /* \"#utility.yul\":9089:9127   */\n      tag_175\n        /* \"#utility.yul\":9121:9125   */\n      dup3\n        /* \"#utility.yul\":9115:9126   */\n      sload\n        /* \"#utility.yul\":9089:9127   */\n      tag_48\n      jump\t// in\n    tag_175:\n        /* \"#utility.yul\":9174:9241   */\n      tag_176\n        /* \"#utility.yul\":9234:9240   */\n      dup3\n        /* \"#utility.yul\":9226:9232   */\n      dup3\n        /* \"#utility.yul\":9220:9224   */\n      dup6\n        /* \"#utility.yul\":9174:9241   */\n      tag_60\n      jump\t// in\n    tag_176:\n        /* \"#utility.yul\":9268:9269   */\n      0x00\n        /* \"#utility.yul\":9292:9296   */\n      0x20\n        /* \"#utility.yul\":9279:9296   */\n      swap1\n      pop\n        /* \"#utility.yul\":9324:9326   */\n      0x1f\n        /* \"#utility.yul\":9316:9322   */\n      dup4\n        /* \"#utility.yul\":9313:9327   */\n      gt\n        /* \"#utility.yul\":9341:9342   */\n      0x01\n        /* \"#utility.yul\":9336:9954   */\n      dup2\n      eq\n      tag_178\n      jumpi\n        /* \"#utility.yul\":9998:9999   */\n      0x00\n        /* \"#utility.yul\":10015:10021   */\n      dup5\n        /* \"#utility.yul\":10012:10089   */\n      iszero\n      tag_179\n      jumpi\n        /* \"#utility.yul\":10064:10073   */\n      dup3\n        /* \"#utility.yul\":10059:10062   */\n      dup8\n        /* \"#utility.yul\":10055:10074   */\n      add\n        /* \"#utility.yul\":10049:10075   */\n      mload\n        /* \"#utility.yul\":10040:10075   */\n      swap1\n      pop\n        /* \"#utility.yul\":10012:10089   */\n    tag_179:\n        /* \"#utility.yul\":10115:10182   */\n      tag_180\n        /* \"#utility.yul\":10175:10181   */\n      dup6\n        /* \"#utility.yul\":10168:10173   */\n      dup3\n        /* \"#utility.yul\":10115:10182   */\n      tag_63\n      jump\t// in\n    tag_180:\n        /* \"#utility.yul\":10109:10113   */\n      dup7\n        /* \"#utility.yul\":10102:10183   */\n      sstore\n        /* \"#utility.yul\":9971:10193   */\n      pop\n        /* \"#utility.yul\":9306:10193   */\n      jump(tag_177)\n        /* \"#utility.yul\":9336:9954   */\n    tag_178:\n        /* \"#utility.yul\":9388:9392   */\n      0x1f\n        /* \"#utility.yul\":9384:9393   */\n      not\n        /* \"#utility.yul\":9376:9382   */\n      dup5\n        /* \"#utility.yul\":9372:9394   */\n      and\n        /* \"#utility.yul\":9422:9459   */\n      tag_181\n        /* \"#utility.yul\":9454:9458   */\n      dup7\n        /* \"#utility.yul\":9422:9459   */\n      tag_49\n      jump\t// in\n    tag_181:\n        /* \"#utility.yul\":9481:9482   */\n      0x00\n        /* \"#utility.yul\":9495:9703   */\n    tag_182:\n        /* \"#utility.yul\":9509:9516   */\n      dup3\n        /* \"#utility.yul\":9506:9507   */\n      dup2\n        /* \"#utility.yul\":9503:9517   */\n      lt\n        /* \"#utility.yul\":9495:9703   */\n      iszero\n      tag_184\n      jumpi\n        /* \"#utility.yul\":9588:9597   */\n      dup5\n        /* \"#utility.yul\":9583:9586   */\n      dup10\n        /* \"#utility.yul\":9579:9598   */\n      add\n        /* \"#utility.yul\":9573:9599   */\n      mload\n        /* \"#utility.yul\":9565:9571   */\n      dup3\n        /* \"#utility.yul\":9558:9600   */\n      sstore\n        /* \"#utility.yul\":9639:9640   */\n      0x01\n        /* \"#utility.yul\":9631:9637   */\n      dup3\n        /* \"#utility.yul\":9627:9641   */\n      add\n        /* \"#utility.yul\":9617:9641   */\n      swap2\n      pop\n        /* \"#utility.yul\":9686:9688   */\n      0x20\n        /* \"#utility.yul\":9675:9684   */\n      dup6\n        /* \"#utility.yul\":9671:9689   */\n      add\n        /* \"#utility.yul\":9658:9689   */\n      swap5\n      pop\n        /* \"#utility.yul\":9532:9536   */\n      0x20\n        /* \"#utility.yul\":9529:9530   */\n      dup2\n        /* \"#utility.yul\":9525:9537   */\n      add\n        /* \"#utility.yul\":9520:9537   */\n      swap1\n      pop\n        /* \"#utility.yul\":9495:9703   */\n      jump(tag_182)\n    tag_184:\n        /* \"#utility.yul\":9731:9737   */\n      dup7\n        /* \"#utility.yul\":9722:9729   */\n      dup4\n        /* \"#utility.yul\":9719:9738   */\n      lt\n        /* \"#utility.yul\":9716:9895   */\n      iszero\n      tag_185\n      jumpi\n        /* \"#utility.yul\":9789:9798   */\n      dup5\n        /* \"#utility.yul\":9784:9787   */\n      dup10\n        /* \"#utility.yul\":9780:9799   */\n      add\n        /* \"#utility.yul\":9774:9800   */\n      mload\n        /* \"#utility.yul\":9832:9880   */\n      tag_186\n        /* \"#utility.yul\":9874:9878   */\n      0x1f\n        /* \"#utility.yul\":9866:9872   */\n      dup10\n        /* \"#utility.yul\":9862:9879   */\n      and\n        /* \"#utility.yul\":9851:9860   */\n      dup3\n        /* \"#utility.yul\":9832:9880   */\n      tag_62\n      jump\t// in\n    tag_186:\n        /* \"#utility.yul\":9824:9830   */\n      dup4\n        /* \"#utility.yul\":9817:9881   */\n      sstore\n        /* \"#utility.yul\":9739:9895   */\n      pop\n        /* \"#utility.yul\":9716:9895   */\n    tag_185:\n        /* \"#utility.yul\":9941:9942   */\n      0x01\n        /* \"#utility.yul\":9937:9938   */\n      0x02\n        /* \"#utility.yul\":9929:9935   */\n      dup9\n        /* \"#utility.yul\":9925:9939   */\n      mul\n        /* \"#utility.yul\":9921:9943   */\n      add\n        /* \"#utility.yul\":9915:9919   */\n      dup9\n        /* \"#utility.yul\":9908:9944   */\n      sstore\n        /* \"#utility.yul\":9343:9954   */\n      pop\n      pop\n      pop\n        /* \"#utility.yul\":9306:10193   */\n    tag_177:\n      pop\n        /* \"#utility.yul\":8896:10199   */\n      pop\n      pop\n      pop\n        /* \"#utility.yul\":8804:10199   */\n      pop\n      pop\n      jump\t// out\n        /* \"#utility.yul\":10205:10323   */\n    tag_64:\n        /* \"#utility.yul\":10292:10316   */\n      tag_188\n        /* \"#utility.yul\":10310:10315   */\n      dup2\n        /* \"#utility.yul\":10292:10316   */\n      tag_30\n      jump\t// in\n    tag_188:\n        /* \"#utility.yul\":10287:10290   */\n      dup3\n        /* \"#utility.yul\":10280:10317   */\n      mstore\n        /* \"#utility.yul\":10205:10323   */\n      pop\n      pop\n      jump\t// out\n        /* \"#utility.yul\":10329:10575   */\n    tag_65:\n        /* \"#utility.yul\":10410:10411   */\n      0x00\n        /* \"#utility.yul\":10420:10533   */\n    tag_190:\n        /* \"#utility.yul\":10434:10440   */\n      dup4\n        /* \"#utility.yul\":10431:10432   */\n      dup2\n        /* \"#utility.yul\":10428:10441   */\n      lt\n        /* \"#utility.yul\":10420:10533   */\n      iszero\n      tag_192\n      jumpi\n        /* \"#utility.yul\":10519:10520   */\n      dup1\n        /* \"#utility.yul\":10514:10517   */\n      dup3\n        /* \"#utility.yul\":10510:10521   */\n      add\n        /* \"#utility.yul\":10504:10522   */\n      mload\n        /* \"#utility.yul\":10500:10501   */\n      dup2\n        /* \"#utility.yul\":10495:10498   */\n      dup5\n        /* \"#utility.yul\":10491:10502   */\n      add\n        /* \"#utility.yul\":10484:10523   */\n      mstore\n        /* \"#utility.yul\":10456:10458   */\n      0x20\n        /* \"#utility.yul\":10453:10454   */\n      dup2\n        /* \"#utility.yul\":10449:10459   */\n      add\n        /* \"#utility.yul\":10444:10459   */\n      swap1\n      pop\n        /* \"#utility.yul\":10420:10533   */\n      jump(tag_190)\n    tag_192:\n        /* \"#utility.yul\":10567:10568   */\n      0x00\n        /* \"#utility.yul\":10558:10564   */\n      dup5\n        /* \"#utility.yul\":10553:10556   */\n      dup5\n        /* \"#utility.yul\":10549:10565   */\n      add\n        /* \"#utility.yul\":10542:10569   */\n      mstore\n        /* \"#utility.yul\":10391:10575   */\n      pop\n        /* \"#utility.yul\":10329:10575   */\n      pop\n      pop\n      pop\n      jump\t// out\n        /* \"#utility.yul\":10581:10958   */\n    tag_66:\n        /* \"#utility.yul\":10669:10672   */\n      0x00\n        /* \"#utility.yul\":10697:10736   */\n      tag_194\n        /* \"#utility.yul\":10730:10735   */\n      dup3\n        /* \"#utility.yul\":10697:10736   */\n      tag_46\n      jump\t// in\n    tag_194:\n        /* \"#utility.yul\":10752:10823   */\n      tag_195\n        /* \"#utility.yul\":10816:10822   */\n      dup2\n        /* \"#utility.yul\":10811:10814   */\n      dup6\n        /* \"#utility.yul\":10752:10823   */\n      tag_43\n      jump\t// in\n    tag_195:\n        /* \"#utility.yul\":10745:10823   */\n      swap4\n      pop\n        /* \"#utility.yul\":10832:10897   */\n      tag_196\n        /* \"#utility.yul\":10890:10896   */\n      dup2\n        /* \"#utility.yul\":10885:10888   */\n      dup6\n        /* \"#utility.yul\":10878:10882   */\n      0x20\n        /* \"#utility.yul\":10871:10876   */\n      dup7\n        /* \"#utility.yul\":10867:10883   */\n      add\n        /* \"#utility.yul\":10832:10897   */\n      tag_65\n      jump\t// in\n    tag_196:\n        /* \"#utility.yul\":10922:10951   */\n      tag_197\n        /* \"#utility.yul\":10944:10950   */\n      dup2\n        /* \"#utility.yul\":10922:10951   */\n      tag_35\n      jump\t// in\n    tag_197:\n        /* \"#utility.yul\":10917:10920   */\n      dup5\n        /* \"#utility.yul\":10913:10952   */\n      add\n        /* \"#utility.yul\":10906:10952   */\n      swap2\n      pop\n        /* \"#utility.yul\":10673:10958   */\n      pop\n        /* \"#utility.yul\":10581:10958   */\n      swap3\n      swap2\n      pop\n      pop\n      jump\t// out\n        /* \"#utility.yul\":10964:11090   */\n    tag_67:\n        /* \"#utility.yul\":11001:11008   */\n      0x00\n        /* \"#utility.yul\":11041:11083   */\n      0xffffffffffffffffffffffffffffffffffffffff\n        /* \"#utility.yul\":11034:11039   */\n      dup3\n        /* \"#utility.yul\":11030:11084   */\n      and\n        /* \"#utility.yul\":11019:11084   */\n      swap1\n      pop\n        /* \"#utility.yul\":10964:11090   */\n      swap2\n      swap1\n      pop\n      jump\t// out\n        /* \"#utility.yul\":11096:11192   */\n    tag_68:\n        /* \"#utility.yul\":11133:11140   */\n      0x00\n        /* \"#utility.yul\":11162:11186   */\n      tag_200\n        /* \"#utility.yul\":11180:11185   */\n      dup3\n        /* \"#utility.yul\":11162:11186   */\n      tag_67\n      jump\t// in\n    tag_200:\n        /* \"#utility.yul\":11151:11186   */\n      swap1\n      pop\n        /* \"#utility.yul\":11096:11192   */\n      swap2\n      swap1\n      pop\n      jump\t// out\n        /* \"#utility.yul\":11198:11316   */\n    tag_69:\n        /* \"#utility.yul\":11285:11309   */\n      tag_202\n        /* \"#utility.yul\":11303:11308   */\n      dup2\n        /* \"#utility.yul\":11285:11309   */\n      tag_68\n      jump\t// in\n    tag_202:\n        /* \"#utility.yul\":11280:11283   */\n      dup3\n        /* \"#utility.yul\":11273:11310   */\n      mstore\n        /* \"#utility.yul\":11198:11316   */\n      pop\n      pop\n      jump\t// out\n        /* \"#utility.yul\":11322:11966   */\n    tag_20:\n        /* \"#utility.yul\":11519:11523   */\n      0x00\n        /* \"#utility.yul\":11557:11560   */\n      0x80\n        /* \"#utility.yul\":11546:11555   */\n      dup3\n        /* \"#utility.yul\":11542:11561   */\n      add\n        /* \"#utility.yul\":11534:11561   */\n      swap1\n      pop\n        /* \"#utility.yul\":11571:11642   */\n      tag_204\n        /* \"#utility.yul\":11639:11640   */\n      0x00\n        /* \"#utility.yul\":11628:11637   */\n      dup4\n        /* \"#utility.yul\":11624:11641   */\n      add\n        /* \"#utility.yul\":11615:11621   */\n      dup8\n        /* \"#utility.yul\":11571:11642   */\n      tag_64\n      jump\t// in\n    tag_204:\n        /* \"#utility.yul\":11652:11724   */\n      tag_205\n        /* \"#utility.yul\":11720:11722   */\n      0x20\n        /* \"#utility.yul\":11709:11718   */\n      dup4\n        /* \"#utility.yul\":11705:11723   */\n      add\n        /* \"#utility.yul\":11696:11702   */\n      dup7\n        /* \"#utility.yul\":11652:11724   */\n      tag_64\n      jump\t// in\n    tag_205:\n        /* \"#utility.yul\":11771:11780   */\n      dup2\n        /* \"#utility.yul\":11765:11769   */\n      dup2\n        /* \"#utility.yul\":11761:11781   */\n      sub\n        /* \"#utility.yul\":11756:11758   */\n      0x40\n        /* \"#utility.yul\":11745:11754   */\n      dup4\n        /* \"#utility.yul\":11741:11759   */\n      add\n        /* \"#utility.yul\":11734:11782   */\n      mstore\n        /* \"#utility.yul\":11799:11877   */\n      tag_206\n        /* \"#utility.yul\":11872:11876   */\n      dup2\n        /* \"#utility.yul\":11863:11869   */\n      dup6\n        /* \"#utility.yul\":11799:11877   */\n      tag_66\n      jump\t// in\n    tag_206:\n        /* \"#utility.yul\":11791:11877   */\n      swap1\n      pop\n        /* \"#utility.yul\":11887:11959   */\n      tag_207\n        /* \"#utility.yul\":11955:11957   */\n      0x60\n        /* \"#utility.yul\":11944:11953   */\n      dup4\n        /* \"#utility.yul\":11940:11958   */\n      add\n        /* \"#utility.yul\":11931:11937   */\n      dup5\n        /* \"#utility.yul\":11887:11959   */\n      tag_69\n      jump\t// in\n    tag_207:\n        /* \"#utility.yul\":11322:11966   */\n      swap6\n      swap5\n      pop\n      pop\n      pop\n      pop\n      pop\n      jump\t// out\n        /* \"#utility.yul\":11972:12154   */\n    tag_70:\n        /* \"#utility.yul\":12112:12146   */\n      0x4461746120776974682074686973206b657920646f65736e2774206578697374\n        /* \"#utility.yul\":12108:12109   */\n      0x00\n        /* \"#utility.yul\":12100:12106   */\n      dup3\n        /* \"#utility.yul\":12096:12110   */\n      add\n        /* \"#utility.yul\":12089:12147   */\n      mstore\n        /* \"#utility.yul\":11972:12154   */\n      pop\n      jump\t// out\n        /* \"#utility.yul\":12160:12526   */\n    tag_71:\n        /* \"#utility.yul\":12302:12305   */\n      0x00\n        /* \"#utility.yul\":12323:12390   */\n      tag_210\n        /* \"#utility.yul\":12387:12389   */\n      0x20\n        /* \"#utility.yul\":12382:12385   */\n      dup4\n        /* \"#utility.yul\":12323:12390   */\n      tag_43\n      jump\t// in\n    tag_210:\n        /* \"#utility.yul\":12316:12390   */\n      swap2\n      pop\n        /* \"#utility.yul\":12399:12492   */\n      tag_211\n        /* \"#utility.yul\":12488:12491   */\n      dup3\n        /* \"#utility.yul\":12399:12492   */\n      tag_70\n      jump\t// in\n    tag_211:\n        /* \"#utility.yul\":12517:12519   */\n      0x20\n        /* \"#utility.yul\":12512:12515   */\n      dup3\n        /* \"#utility.yul\":12508:12520   */\n      add\n        /* \"#utility.yul\":12501:12520   */\n      swap1\n      pop\n        /* \"#utility.yul\":12160:12526   */\n      swap2\n      swap1\n      pop\n      jump\t// out\n        /* \"#utility.yul\":12532:12951   */\n    tag_24:\n        /* \"#utility.yul\":12698:12702   */\n      0x00\n        /* \"#utility.yul\":12736:12738   */\n      0x20\n        /* \"#utility.yul\":12725:12734   */\n      dup3\n        /* \"#utility.yul\":12721:12739   */\n      add\n        /* \"#utility.yul\":12713:12739   */\n      swap1\n      pop\n        /* \"#utility.yul\":12785:12794   */\n      dup2\n        /* \"#utility.yul\":12779:12783   */\n      dup2\n        /* \"#utility.yul\":12775:12795   */\n      sub\n        /* \"#utility.yul\":12771:12772   */\n      0x00\n        /* \"#utility.yul\":12760:12769   */\n      dup4\n        /* \"#utility.yul\":12756:12773   */\n      add\n        /* \"#utility.yul\":12749:12796   */\n      mstore\n        /* \"#utility.yul\":12813:12944   */\n      tag_213\n        /* \"#utility.yul\":12939:12943   */\n      dup2\n        /* \"#utility.yul\":12813:12944   */\n      tag_71\n      jump\t// in\n    tag_213:\n        /* \"#utility.yul\":12805:12944   */\n      swap1\n      pop\n        /* \"#utility.yul\":12532:12951   */\n      swap2\n      swap1\n      pop\n      jump\t// out\n        /* \"#utility.yul\":12981:13812   */\n    tag_72:\n        /* \"#utility.yul\":13066:13069   */\n      0x00\n        /* \"#utility.yul\":13103:13108   */\n      dup2\n        /* \"#utility.yul\":13097:13109   */\n      sload\n        /* \"#utility.yul\":13132:13168   */\n      tag_215\n        /* \"#utility.yul\":13158:13167   */\n      dup2\n        /* \"#utility.yul\":13132:13168   */\n      tag_48\n      jump\t// in\n    tag_215:\n        /* \"#utility.yul\":13184:13255   */\n      tag_216\n        /* \"#utility.yul\":13248:13254   */\n      dup2\n        /* \"#utility.yul\":13243:13246   */\n      dup7\n        /* \"#utility.yul\":13184:13255   */\n      tag_43\n      jump\t// in\n    tag_216:\n        /* \"#utility.yul\":13177:13255   */\n      swap5\n      pop\n        /* \"#utility.yul\":13286:13287   */\n      0x01\n        /* \"#utility.yul\":13275:13284   */\n      dup3\n        /* \"#utility.yul\":13271:13288   */\n      and\n        /* \"#utility.yul\":13302:13303   */\n      0x00\n        /* \"#utility.yul\":13297:13461   */\n      dup2\n      eq\n      tag_218\n      jumpi\n        /* \"#utility.yul\":13475:13476   */\n      0x01\n        /* \"#utility.yul\":13470:13806   */\n      dup2\n      eq\n      tag_219\n      jumpi\n        /* \"#utility.yul\":13264:13806   */\n      jump(tag_217)\n        /* \"#utility.yul\":13297:13461   */\n    tag_218:\n        /* \"#utility.yul\":13381:13385   */\n      0xff\n        /* \"#utility.yul\":13377:13386   */\n      not\n        /* \"#utility.yul\":13366:13375   */\n      dup4\n        /* \"#utility.yul\":13362:13387   */\n      and\n        /* \"#utility.yul\":13357:13360   */\n      dup7\n        /* \"#utility.yul\":13350:13388   */\n      mstore\n        /* \"#utility.yul\":13441:13447   */\n      dup2\n        /* \"#utility.yul\":13434:13448   */\n      iszero\n        /* \"#utility.yul\":13427:13449   */\n      iszero\n        /* \"#utility.yul\":13421:13425   */\n      0x20\n        /* \"#utility.yul\":13417:13450   */\n      mul\n        /* \"#utility.yul\":13412:13415   */\n      dup7\n        /* \"#utility.yul\":13408:13451   */\n      add\n        /* \"#utility.yul\":13401:13451   */\n      swap4\n      pop\n        /* \"#utility.yul\":13297:13461   */\n      jump(tag_217)\n        /* \"#utility.yul\":13470:13806   */\n    tag_219:\n        /* \"#utility.yul\":13537:13575   */\n      tag_220\n        /* \"#utility.yul\":13569:13574   */\n      dup6\n        /* \"#utility.yul\":13537:13575   */\n      tag_49\n      jump\t// in\n    tag_220:\n        /* \"#utility.yul\":13597:13598   */\n      0x00\n        /* \"#utility.yul\":13611:13765   */\n    tag_221:\n        /* \"#utility.yul\":13625:13631   */\n      dup4\n        /* \"#utility.yul\":13622:13623   */\n      dup2\n        /* \"#utility.yul\":13619:13632   */\n      lt\n        /* \"#utility.yul\":13611:13765   */\n      iszero\n      tag_223\n      jumpi\n        /* \"#utility.yul\":13699:13706   */\n      dup2\n        /* \"#utility.yul\":13693:13707   */\n      sload\n        /* \"#utility.yul\":13689:13690   */\n      dup2\n        /* \"#utility.yul\":13684:13687   */\n      dup10\n        /* \"#utility.yul\":13680:13691   */\n      add\n        /* \"#utility.yul\":13673:13708   */\n      mstore\n        /* \"#utility.yul\":13749:13750   */\n      0x01\n        /* \"#utility.yul\":13740:13747   */\n      dup3\n        /* \"#utility.yul\":13736:13751   */\n      add\n        /* \"#utility.yul\":13725:13751   */\n      swap2\n      pop\n        /* \"#utility.yul\":13647:13651   */\n      0x20\n        /* \"#utility.yul\":13644:13645   */\n      dup2\n        /* \"#utility.yul\":13640:13652   */\n      add\n        /* \"#utility.yul\":13635:13652   */\n      swap1\n      pop\n        /* \"#utility.yul\":13611:13765   */\n      jump(tag_221)\n    tag_223:\n        /* \"#utility.yul\":13794:13795   */\n      dup1\n        /* \"#utility.yul\":13789:13792   */\n      dup9\n        /* \"#utility.yul\":13785:13796   */\n      add\n        /* \"#utility.yul\":13778:13796   */\n      swap6\n      pop\n        /* \"#utility.yul\":13477:13806   */\n      pop\n      pop\n        /* \"#utility.yul\":13264:13806   */\n    tag_217:\n      pop\n        /* \"#utility.yul\":13070:13812   */\n      pop\n      pop\n        /* \"#utility.yul\":12981:13812   */\n      swap3\n      swap2\n      pop\n      pop\n      jump\t// out\n        /* \"#utility.yul\":13818:14456   */\n    tag_26:\n        /* \"#utility.yul\":14012:14016   */\n      0x00\n        /* \"#utility.yul\":14050:14053   */\n      0x80\n        /* \"#utility.yul\":14039:14048   */\n      dup3\n        /* \"#utility.yul\":14035:14054   */\n      add\n        /* \"#utility.yul\":14027:14054   */\n      swap1\n      pop\n        /* \"#utility.yul\":14064:14135   */\n      tag_225\n        /* \"#utility.yul\":14132:14133   */\n      0x00\n        /* \"#utility.yul\":14121:14130   */\n      dup4\n        /* \"#utility.yul\":14117:14134   */\n      add\n        /* \"#utility.yul\":14108:14114   */\n      dup8\n        /* \"#utility.yul\":14064:14135   */\n      tag_64\n      jump\t// in\n    tag_225:\n        /* \"#utility.yul\":14145:14217   */\n      tag_226\n        /* \"#utility.yul\":14213:14215   */\n      0x20\n        /* \"#utility.yul\":14202:14211   */\n      dup4\n        /* \"#utility.yul\":14198:14216   */\n      add\n        /* \"#utility.yul\":14189:14195   */\n      dup7\n        /* \"#utility.yul\":14145:14217   */\n      tag_64\n      jump\t// in\n    tag_226:\n        /* \"#utility.yul\":14264:14273   */\n      dup2\n        /* \"#utility.yul\":14258:14262   */\n      dup2\n        /* \"#utility.yul\":14254:14274   */\n      sub\n        /* \"#utility.yul\":14249:14251   */\n      0x40\n        /* \"#utility.yul\":14238:14247   */\n      dup4\n        /* \"#utility.yul\":14234:14252   */\n      add\n        /* \"#utility.yul\":14227:14275   */\n      mstore\n        /* \"#utility.yul\":14292:14367   */\n      tag_227\n        /* \"#utility.yul\":14362:14366   */\n      dup2\n        /* \"#utility.yul\":14353:14359   */\n      dup6\n        /* \"#utility.yul\":14292:14367   */\n      tag_72\n      jump\t// in\n    tag_227:\n        /* \"#utility.yul\":14284:14367   */\n      swap1\n      pop\n        /* \"#utility.yul\":14377:14449   */\n      tag_228\n        /* \"#utility.yul\":14445:14447   */\n      0x60\n        /* \"#utility.yul\":14434:14443   */\n      dup4\n        /* \"#utility.yul\":14430:14448   */\n      add\n        /* \"#utility.yul\":14421:14427   */\n      dup5\n        /* \"#utility.yul\":14377:14449   */\n      tag_69\n      jump\t// in\n    tag_228:\n        /* \"#utility.yul\":13818:14456   */\n      swap6\n      swap5\n      pop\n      pop\n      pop\n      pop\n      pop\n      jump\t// out\n\n    auxdata: 0xa26469706673582212202e4f7e2cdbccd72942e01a58be41a8b40c698d848c2652cf3aeefe2b636fded364736f6c63430008160033\n}\n",
				"bytecode": {
					"linkReferences": {},
					"object": "608060405234801561000f575f80fd5b50610b098061001d5f395ff3fe608060405234801561000f575f80fd5b5060043610610034575f3560e01c80631c44252c14610038578063a94840bb14610054575b5f80fd5b610052600480360381019061004d91906104a0565b610070565b005b61006e6004803603810190610069919061050c565b6101f8565b005b5f15155f808581526020019081526020015f2060020160149054906101000a900460ff161515146100d6576040517f08c379a00000000000000000000000000000000000000000000000000000000081526004016100cd906105b7565b60405180910390fd5b5f60405180608001604052808481526020018381526020013373ffffffffffffffffffffffffffffffffffffffff1681526020015f15158152509050805f808681526020019081526020015f205f820151815f0155602082015181600101908161014091906107d9565b506040820151816002015f6101000a81548173ffffffffffffffffffffffffffffffffffffffff021916908373ffffffffffffffffffffffffffffffffffffffff16021790555060608201518160020160146101000a81548160ff0219169083151502179055509050507f8cd589c9f7f2b675df70a410381175736dcea1f0ef31b11e3da1198948e2261384825f0151836020015184604001516040516101ea9493929190610956565b60405180910390a150505050565b5f15155f808381526020019081526020015f2060020160149054906101000a900460ff1615151461025e576040517f08c379a0000000000000000000000000000000000000000000000000000000008152600401610255906109ea565b60405180910390fd5b60015f808381526020019081526020015f2060020160146101000a81548160ff0219169083151502179055507fdb0e01ba8b2d18056a89b229d0b4b08a0d7d57f1d4d7ea7aa4341d48fbfc1e73815f808481526020019081526020015f205f01545f808581526020019081526020015f206001015f808681526020019081526020015f206002015f9054906101000a900473ffffffffffffffffffffffffffffffffffffffff166040516103159493929190610a89565b60405180910390a150565b5f604051905090565b5f80fd5b5f80fd5b5f819050919050565b61034381610331565b811461034d575f80fd5b50565b5f8135905061035e8161033a565b92915050565b5f80fd5b5f80fd5b5f601f19601f8301169050919050565b7f4e487b71000000000000000000000000000000000000000000000000000000005f52604160045260245ffd5b6103b28261036c565b810181811067ffffffffffffffff821117156103d1576103d061037c565b5b80604052505050565b5f6103e3610320565b90506103ef82826103a9565b919050565b5f67ffffffffffffffff82111561040e5761040d61037c565b5b6104178261036c565b9050602081019050919050565b828183375f83830152505050565b5f61044461043f846103f4565b6103da565b9050828152602081018484840111156104605761045f610368565b5b61046b848285610424565b509392505050565b5f82601f83011261048757610486610364565b5b8135610497848260208601610432565b91505092915050565b5f805f606084860312156104b7576104b6610329565b5b5f6104c486828701610350565b93505060206104d586828701610350565b925050604084013567ffffffffffffffff8111156104f6576104f561032d565b5b61050286828701610473565b9150509250925092565b5f6020828403121561052157610520610329565b5b5f61052e84828501610350565b91505092915050565b5f82825260208201905092915050565b7f4461746120776974682074686973206b657920616c72656164792065786973745f8201527f7300000000000000000000000000000000000000000000000000000000000000602082015250565b5f6105a1602183610537565b91506105ac82610547565b604082019050919050565b5f6020820190508181035f8301526105ce81610595565b9050919050565b5f81519050919050565b7f4e487b71000000000000000000000000000000000000000000000000000000005f52602260045260245ffd5b5f600282049050600182168061062357607f821691505b602082108103610636576106356105df565b5b50919050565b5f819050815f5260205f209050919050565b5f6020601f8301049050919050565b5f82821b905092915050565b5f600883026106987fffffffffffffffffffffffffffffffffffffffffffffffffffffffffffffffff8261065d565b6106a2868361065d565b95508019841693508086168417925050509392505050565b5f819050919050565b5f6106dd6106d86106d384610331565b6106ba565b610331565b9050919050565b5f819050919050565b6106f6836106c3565b61070a610702826106e4565b848454610669565b825550505050565b5f90565b61071e610712565b6107298184846106ed565b505050565b5b8181101561074c576107415f82610716565b60018101905061072f565b5050565b601f821115610791576107628161063c565b61076b8461064e565b8101602085101561077a578190505b61078e6107868561064e565b83018261072e565b50505b505050565b5f82821c905092915050565b5f6107b15f1984600802610796565b1980831691505092915050565b5f6107c983836107a2565b9150826002028217905092915050565b6107e2826105d5565b67ffffffffffffffff8111156107fb576107fa61037c565b5b610805825461060c565b610810828285610750565b5f60209050601f831160018114610841575f841561082f578287015190505b61083985826107be565b8655506108a0565b601f19841661084f8661063c565b5f5b8281101561087657848901518255600182019150602085019450602081019050610851565b86831015610893578489015161088f601f8916826107a2565b8355505b6001600288020188555050505b505050505050565b6108b181610331565b82525050565b5f5b838110156108d45780820151818401526020810190506108b9565b5f8484015250505050565b5f6108e9826105d5565b6108f38185610537565b93506109038185602086016108b7565b61090c8161036c565b840191505092915050565b5f73ffffffffffffffffffffffffffffffffffffffff82169050919050565b5f61094082610917565b9050919050565b61095081610936565b82525050565b5f6080820190506109695f8301876108a8565b61097660208301866108a8565b818103604083015261098881856108df565b90506109976060830184610947565b95945050505050565b7f4461746120776974682074686973206b657920646f65736e27742065786973745f82015250565b5f6109d4602083610537565b91506109df826109a0565b602082019050919050565b5f6020820190508181035f830152610a01816109c8565b9050919050565b5f8154610a148161060c565b610a1e8186610537565b9450600182165f8114610a385760018114610a4e57610a80565b60ff198316865281151560200286019350610a80565b610a578561063c565b5f5b83811015610a7857815481890152600182019150602081019050610a59565b808801955050505b50505092915050565b5f608082019050610a9c5f8301876108a8565b610aa960208301866108a8565b8181036040830152610abb8185610a08565b9050610aca6060830184610947565b9594505050505056fea26469706673582212202e4f7e2cdbccd72942e01a58be41a8b40c698d848c2652cf3aeefe2b636fded364736f6c63430008160033",
					"opcodes": "PUSH1 0x80 PUSH1 0x40 MSTORE CALLVALUE DUP1 ISZERO PUSH2 0xF JUMPI PUSH0 DUP1 REVERT JUMPDEST POP PUSH2 0xB09 DUP1 PUSH2 0x1D PUSH0 CODECOPY PUSH0 RETURN INVALID PUSH1 0x80 PUSH1 0x40 MSTORE CALLVALUE DUP1 ISZERO PUSH2 0xF JUMPI PUSH0 DUP1 REVERT JUMPDEST POP PUSH1 0x4 CALLDATASIZE LT PUSH2 0x34 JUMPI PUSH0 CALLDATALOAD PUSH1 0xE0 SHR DUP1 PUSH4 0x1C44252C EQ PUSH2 0x38 JUMPI DUP1 PUSH4 0xA94840BB EQ PUSH2 0x54 JUMPI JUMPDEST PUSH0 DUP1 REVERT JUMPDEST PUSH2 0x52 PUSH1 0x4 DUP1 CALLDATASIZE SUB DUP2 ADD SWAP1 PUSH2 0x4D SWAP2 SWAP1 PUSH2 0x4A0 JUMP JUMPDEST PUSH2 0x70 JUMP JUMPDEST STOP JUMPDEST PUSH2 0x6E PUSH1 0x4 DUP1 CALLDATASIZE SUB DUP2 ADD SWAP1 PUSH2 0x69 SWAP2 SWAP1 PUSH2 0x50C JUMP JUMPDEST PUSH2 0x1F8 JUMP JUMPDEST STOP JUMPDEST PUSH0 ISZERO ISZERO PUSH0 DUP1 DUP6 DUP2 MSTORE PUSH1 0x20 ADD SWAP1 DUP2 MSTORE PUSH1 0x20 ADD PUSH0 KECCAK256 PUSH1 0x2 ADD PUSH1 0x14 SWAP1 SLOAD SWAP1 PUSH2 0x100 EXP SWAP1 DIV PUSH1 0xFF AND ISZERO ISZERO EQ PUSH2 0xD6 JUMPI PUSH1 0x40 MLOAD PUSH32 0x8C379A000000000000000000000000000000000000000000000000000000000 DUP2 MSTORE PUSH1 0x4 ADD PUSH2 0xCD SWAP1 PUSH2 0x5B7 JUMP JUMPDEST PUSH1 0x40 MLOAD DUP1 SWAP2 SUB SWAP1 REVERT JUMPDEST PUSH0 PUSH1 0x40 MLOAD DUP1 PUSH1 0x80 ADD PUSH1 0x40 MSTORE DUP1 DUP5 DUP2 MSTORE PUSH1 0x20 ADD DUP4 DUP2 MSTORE PUSH1 0x20 ADD CALLER PUSH20 0xFFFFFFFFFFFFFFFFFFFFFFFFFFFFFFFFFFFFFFFF AND DUP2 MSTORE PUSH1 0x20 ADD PUSH0 ISZERO ISZERO DUP2 MSTORE POP SWAP1 POP DUP1 PUSH0 DUP1 DUP7 DUP2 MSTORE PUSH1 0x20 ADD SWAP1 DUP2 MSTORE PUSH1 0x20 ADD PUSH0 KECCAK256 PUSH0 DUP3 ADD MLOAD DUP2 PUSH0 ADD SSTORE PUSH1 0x20 DUP3 ADD MLOAD DUP2 PUSH1 0x1 ADD SWAP1 DUP2 PUSH2 0x140 SWAP2 SWAP1 PUSH2 0x7D9 JUMP JUMPDEST POP PUSH1 0x40 DUP3 ADD MLOAD DUP2 PUSH1 0x2 ADD PUSH0 PUSH2 0x100 EXP DUP2 SLOAD DUP2 PUSH20 0xFFFFFFFFFFFFFFFFFFFFFFFFFFFFFFFFFFFFFFFF MUL NOT AND SWAP1 DUP4 PUSH20 0xFFFFFFFFFFFFFFFFFFFFFFFFFFFFFFFFFFFFFFFF AND MUL OR SWAP1 SSTORE POP PUSH1 0x60 DUP3 ADD MLOAD DUP2 PUSH1 0x2 ADD PUSH1 0x14 PUSH2 0x100 EXP DUP2 SLOAD DUP2 PUSH1 0xFF MUL NOT AND SWAP1 DUP4 ISZERO ISZERO MUL OR SWAP1 SSTORE POP SWAP1 POP POP PUSH32 0x8CD589C9F7F2B675DF70A410381175736DCEA1F0EF31B11E3DA1198948E22613 DUP5 DUP3 PUSH0 ADD MLOAD DUP4 PUSH1 0x20 ADD MLOAD DUP5 PUSH1 0x40 ADD MLOAD PUSH1 0x40 MLOAD PUSH2 0x1EA SWAP5 SWAP4 SWAP3 SWAP2 SWAP1 PUSH2 0x956 JUMP JUMPDEST PUSH1 0x40 MLOAD DUP1 SWAP2 SUB SWAP1 LOG1 POP POP POP POP JUMP JUMPDEST PUSH0 ISZERO ISZERO PUSH0 DUP1 DUP4 DUP2 MSTORE PUSH1 0x20 ADD SWAP1 DUP2 MSTORE PUSH1 0x20 ADD PUSH0 KECCAK256 PUSH1 0x2 ADD PUSH1 0x14 SWAP1 SLOAD SWAP1 PUSH2 0x100 EXP SWAP1 DIV PUSH1 0xFF AND ISZERO ISZERO EQ PUSH2 0x25E JUMPI PUSH1 0x40 MLOAD PUSH32 0x8C379A000000000000000000000000000000000000000000000000000000000 DUP2 MSTORE PUSH1 0x4 ADD PUSH2 0x255 SWAP1 PUSH2 0x9EA JUMP JUMPDEST PUSH1 0x40 MLOAD DUP1 SWAP2 SUB SWAP1 REVERT JUMPDEST PUSH1 0x1 PUSH0 DUP1 DUP4 DUP2 MSTORE PUSH1 0x20 ADD SWAP1 DUP2 MSTORE PUSH1 0x20 ADD PUSH0 KECCAK256 PUSH1 0x2 ADD PUSH1 0x14 PUSH2 0x100 EXP DUP2 SLOAD DUP2 PUSH1 0xFF MUL NOT AND SWAP1 DUP4 ISZERO ISZERO MUL OR SWAP1 SSTORE POP PUSH32 0xDB0E01BA8B2D18056A89B229D0B4B08A0D7D57F1D4D7EA7AA4341D48FBFC1E73 DUP2 PUSH0 DUP1 DUP5 DUP2 MSTORE PUSH1 0x20 ADD SWAP1 DUP2 MSTORE PUSH1 0x20 ADD PUSH0 KECCAK256 PUSH0 ADD SLOAD PUSH0 DUP1 DUP6 DUP2 MSTORE PUSH1 0x20 ADD SWAP1 DUP2 MSTORE PUSH1 0x20 ADD PUSH0 KECCAK256 PUSH1 0x1 ADD PUSH0 DUP1 DUP7 DUP2 MSTORE PUSH1 0x20 ADD SWAP1 DUP2 MSTORE PUSH1 0x20 ADD PUSH0 KECCAK256 PUSH1 0x2 ADD PUSH0 SWAP1 SLOAD SWAP1 PUSH2 0x100 EXP SWAP1 DIV PUSH20 0xFFFFFFFFFFFFFFFFFFFFFFFFFFFFFFFFFFFFFFFF AND PUSH1 0x40 MLOAD PUSH2 0x315 SWAP5 SWAP4 SWAP3 SWAP2 SWAP1 PUSH2 0xA89 JUMP JUMPDEST PUSH1 0x40 MLOAD DUP1 SWAP2 SUB SWAP1 LOG1 POP JUMP JUMPDEST PUSH0 PUSH1 0x40 MLOAD SWAP1 POP SWAP1 JUMP JUMPDEST PUSH0 DUP1 REVERT JUMPDEST PUSH0 DUP1 REVERT JUMPDEST PUSH0 DUP2 SWAP1 POP SWAP2 SWAP1 POP JUMP JUMPDEST PUSH2 0x343 DUP2 PUSH2 0x331 JUMP JUMPDEST DUP2 EQ PUSH2 0x34D JUMPI PUSH0 DUP1 REVERT JUMPDEST POP JUMP JUMPDEST PUSH0 DUP2 CALLDATALOAD SWAP1 POP PUSH2 0x35E DUP2 PUSH2 0x33A JUMP JUMPDEST SWAP3 SWAP2 POP POP JUMP JUMPDEST PUSH0 DUP1 REVERT JUMPDEST PUSH0 DUP1 REVERT JUMPDEST PUSH0 PUSH1 0x1F NOT PUSH1 0x1F DUP4 ADD AND SWAP1 POP SWAP2 SWAP1 POP JUMP JUMPDEST PUSH32 0x4E487B7100000000000000000000000000000000000000000000000000000000 PUSH0 MSTORE PUSH1 0x41 PUSH1 0x4 MSTORE PUSH1 0x24 PUSH0 REVERT JUMPDEST PUSH2 0x3B2 DUP3 PUSH2 0x36C JUMP JUMPDEST DUP2 ADD DUP2 DUP2 LT PUSH8 0xFFFFFFFFFFFFFFFF DUP3 GT OR ISZERO PUSH2 0x3D1 JUMPI PUSH2 0x3D0 PUSH2 0x37C JUMP JUMPDEST JUMPDEST DUP1 PUSH1 0x40 MSTORE POP POP POP JUMP JUMPDEST PUSH0 PUSH2 0x3E3 PUSH2 0x320 JUMP JUMPDEST SWAP1 POP PUSH2 0x3EF DUP3 DUP3 PUSH2 0x3A9 JUMP JUMPDEST SWAP2 SWAP1 POP JUMP JUMPDEST PUSH0 PUSH8 0xFFFFFFFFFFFFFFFF DUP3 GT ISZERO PUSH2 0x40E JUMPI PUSH2 0x40D PUSH2 0x37C JUMP JUMPDEST JUMPDEST PUSH2 0x417 DUP3 PUSH2 0x36C JUMP JUMPDEST SWAP1 POP PUSH1 0x20 DUP2 ADD SWAP1 POP SWAP2 SWAP1 POP JUMP JUMPDEST DUP3 DUP2 DUP4 CALLDATACOPY PUSH0 DUP4 DUP4 ADD MSTORE POP POP POP JUMP JUMPDEST PUSH0 PUSH2 0x444 PUSH2 0x43F DUP5 PUSH2 0x3F4 JUMP JUMPDEST PUSH2 0x3DA JUMP JUMPDEST SWAP1 POP DUP3 DUP2 MSTORE PUSH1 0x20 DUP2 ADD DUP5 DUP5 DUP5 ADD GT ISZERO PUSH2 0x460 JUMPI PUSH2 0x45F PUSH2 0x368 JUMP JUMPDEST JUMPDEST PUSH2 0x46B DUP5 DUP3 DUP6 PUSH2 0x424 JUMP JUMPDEST POP SWAP4 SWAP3 POP POP POP JUMP JUMPDEST PUSH0 DUP3 PUSH1 0x1F DUP4 ADD SLT PUSH2 0x487 JUMPI PUSH2 0x486 PUSH2 0x364 JUMP JUMPDEST JUMPDEST DUP2 CALLDATALOAD PUSH2 0x497 DUP5 DUP3 PUSH1 0x20 DUP7 ADD PUSH2 0x432 JUMP JUMPDEST SWAP2 POP POP SWAP3 SWAP2 POP POP JUMP JUMPDEST PUSH0 DUP1 PUSH0 PUSH1 0x60 DUP5 DUP7 SUB SLT ISZERO PUSH2 0x4B7 JUMPI PUSH2 0x4B6 PUSH2 0x329 JUMP JUMPDEST JUMPDEST PUSH0 PUSH2 0x4C4 DUP7 DUP3 DUP8 ADD PUSH2 0x350 JUMP JUMPDEST SWAP4 POP POP PUSH1 0x20 PUSH2 0x4D5 DUP7 DUP3 DUP8 ADD PUSH2 0x350 JUMP JUMPDEST SWAP3 POP POP PUSH1 0x40 DUP5 ADD CALLDATALOAD PUSH8 0xFFFFFFFFFFFFFFFF DUP2 GT ISZERO PUSH2 0x4F6 JUMPI PUSH2 0x4F5 PUSH2 0x32D JUMP JUMPDEST JUMPDEST PUSH2 0x502 DUP7 DUP3 DUP8 ADD PUSH2 0x473 JUMP JUMPDEST SWAP2 POP POP SWAP3 POP SWAP3 POP SWAP3 JUMP JUMPDEST PUSH0 PUSH1 0x20 DUP3 DUP5 SUB SLT ISZERO PUSH2 0x521 JUMPI PUSH2 0x520 PUSH2 0x329 JUMP JUMPDEST JUMPDEST PUSH0 PUSH2 0x52E DUP5 DUP3 DUP6 ADD PUSH2 0x350 JUMP JUMPDEST SWAP2 POP POP SWAP3 SWAP2 POP POP JUMP JUMPDEST PUSH0 DUP3 DUP3 MSTORE PUSH1 0x20 DUP3 ADD SWAP1 POP SWAP3 SWAP2 POP POP JUMP JUMPDEST PUSH32 0x4461746120776974682074686973206B657920616C7265616479206578697374 PUSH0 DUP3 ADD MSTORE PUSH32 0x7300000000000000000000000000000000000000000000000000000000000000 PUSH1 0x20 DUP3 ADD MSTORE POP JUMP JUMPDEST PUSH0 PUSH2 0x5A1 PUSH1 0x21 DUP4 PUSH2 0x537 JUMP JUMPDEST SWAP2 POP PUSH2 0x5AC DUP3 PUSH2 0x547 JUMP JUMPDEST PUSH1 0x40 DUP3 ADD SWAP1 POP SWAP2 SWAP1 POP JUMP JUMPDEST PUSH0 PUSH1 0x20 DUP3 ADD SWAP1 POP DUP2 DUP2 SUB PUSH0 DUP4 ADD MSTORE PUSH2 0x5CE DUP2 PUSH2 0x595 JUMP JUMPDEST SWAP1 POP SWAP2 SWAP1 POP JUMP JUMPDEST PUSH0 DUP2 MLOAD SWAP1 POP SWAP2 SWAP1 POP JUMP JUMPDEST PUSH32 0x4E487B7100000000000000000000000000000000000000000000000000000000 PUSH0 MSTORE PUSH1 0x22 PUSH1 0x4 MSTORE PUSH1 0x24 PUSH0 REVERT JUMPDEST PUSH0 PUSH1 0x2 DUP3 DIV SWAP1 POP PUSH1 0x1 DUP3 AND DUP1 PUSH2 0x623 JUMPI PUSH1 0x7F DUP3 AND SWAP2 POP JUMPDEST PUSH1 0x20 DUP3 LT DUP2 SUB PUSH2 0x636 JUMPI PUSH2 0x635 PUSH2 0x5DF JUMP JUMPDEST JUMPDEST POP SWAP2 SWAP1 POP JUMP JUMPDEST PUSH0 DUP2 SWAP1 POP DUP2 PUSH0 MSTORE PUSH1 0x20 PUSH0 KECCAK256 SWAP1 POP SWAP2 SWAP1 POP JUMP JUMPDEST PUSH0 PUSH1 0x20 PUSH1 0x1F DUP4 ADD DIV SWAP1 POP SWAP2 SWAP1 POP JUMP JUMPDEST PUSH0 DUP3 DUP3 SHL SWAP1 POP SWAP3 SWAP2 POP POP JUMP JUMPDEST PUSH0 PUSH1 0x8 DUP4 MUL PUSH2 0x698 PUSH32 0xFFFFFFFFFFFFFFFFFFFFFFFFFFFFFFFFFFFFFFFFFFFFFFFFFFFFFFFFFFFFFFFF DUP3 PUSH2 0x65D JUMP JUMPDEST PUSH2 0x6A2 DUP7 DUP4 PUSH2 0x65D JUMP JUMPDEST SWAP6 POP DUP1 NOT DUP5 AND SWAP4 POP DUP1 DUP7 AND DUP5 OR SWAP3 POP POP POP SWAP4 SWAP3 POP POP POP JUMP JUMPDEST PUSH0 DUP2 SWAP1 POP SWAP2 SWAP1 POP JUMP JUMPDEST PUSH0 PUSH2 0x6DD PUSH2 0x6D8 PUSH2 0x6D3 DUP5 PUSH2 0x331 JUMP JUMPDEST PUSH2 0x6BA JUMP JUMPDEST PUSH2 0x331 JUMP JUMPDEST SWAP1 POP SWAP2 SWAP1 POP JUMP JUMPDEST PUSH0 DUP2 SWAP1 POP SWAP2 SWAP1 POP JUMP JUMPDEST PUSH2 0x6F6 DUP4 PUSH2 0x6C3 JUMP JUMPDEST PUSH2 0x70A PUSH2 0x702 DUP3 PUSH2 0x6E4 JUMP JUMPDEST DUP5 DUP5 SLOAD PUSH2 0x669 JUMP JUMPDEST DUP3 SSTORE POP POP POP POP JUMP JUMPDEST PUSH0 SWAP1 JUMP JUMPDEST PUSH2 0x71E PUSH2 0x712 JUMP JUMPDEST PUSH2 0x729 DUP2 DUP5 DUP5 PUSH2 0x6ED JUMP JUMPDEST POP POP POP JUMP JUMPDEST JUMPDEST DUP2 DUP2 LT ISZERO PUSH2 0x74C JUMPI PUSH2 0x741 PUSH0 DUP3 PUSH2 0x716 JUMP JUMPDEST PUSH1 0x1 DUP2 ADD SWAP1 POP PUSH2 0x72F JUMP JUMPDEST POP POP JUMP JUMPDEST PUSH1 0x1F DUP3 GT ISZERO PUSH2 0x791 JUMPI PUSH2 0x762 DUP2 PUSH2 0x63C JUMP JUMPDEST PUSH2 0x76B DUP5 PUSH2 0x64E JUMP JUMPDEST DUP2 ADD PUSH1 0x20 DUP6 LT ISZERO PUSH2 0x77A JUMPI DUP2 SWAP1 POP JUMPDEST PUSH2 0x78E PUSH2 0x786 DUP6 PUSH2 0x64E JUMP JUMPDEST DUP4 ADD DUP3 PUSH2 0x72E JUMP JUMPDEST POP POP JUMPDEST POP POP POP JUMP JUMPDEST PUSH0 DUP3 DUP3 SHR SWAP1 POP SWAP3 SWAP2 POP POP JUMP JUMPDEST PUSH0 PUSH2 0x7B1 PUSH0 NOT DUP5 PUSH1 0x8 MUL PUSH2 0x796 JUMP JUMPDEST NOT DUP1 DUP4 AND SWAP2 POP POP SWAP3 SWAP2 POP POP JUMP JUMPDEST PUSH0 PUSH2 0x7C9 DUP4 DUP4 PUSH2 0x7A2 JUMP JUMPDEST SWAP2 POP DUP3 PUSH1 0x2 MUL DUP3 OR SWAP1 POP SWAP3 SWAP2 POP POP JUMP JUMPDEST PUSH2 0x7E2 DUP3 PUSH2 0x5D5 JUMP JUMPDEST PUSH8 0xFFFFFFFFFFFFFFFF DUP2 GT ISZERO PUSH2 0x7FB JUMPI PUSH2 0x7FA PUSH2 0x37C JUMP JUMPDEST JUMPDEST PUSH2 0x805 DUP3 SLOAD PUSH2 0x60C JUMP JUMPDEST PUSH2 0x810 DUP3 DUP3 DUP6 PUSH2 0x750 JUMP JUMPDEST PUSH0 PUSH1 0x20 SWAP1 POP PUSH1 0x1F DUP4 GT PUSH1 0x1 DUP2 EQ PUSH2 0x841 JUMPI PUSH0 DUP5 ISZERO PUSH2 0x82F JUMPI DUP3 DUP8 ADD MLOAD SWAP1 POP JUMPDEST PUSH2 0x839 DUP6 DUP3 PUSH2 0x7BE JUMP JUMPDEST DUP7 SSTORE POP PUSH2 0x8A0 JUMP JUMPDEST PUSH1 0x1F NOT DUP5 AND PUSH2 0x84F DUP7 PUSH2 0x63C JUMP JUMPDEST PUSH0 JUMPDEST DUP3 DUP2 LT ISZERO PUSH2 0x876 JUMPI DUP5 DUP10 ADD MLOAD DUP3 SSTORE PUSH1 0x1 DUP3 ADD SWAP2 POP PUSH1 0x20 DUP6 ADD SWAP5 POP PUSH1 0x20 DUP2 ADD SWAP1 POP PUSH2 0x851 JUMP JUMPDEST DUP7 DUP4 LT ISZERO PUSH2 0x893 JUMPI DUP5 DUP10 ADD MLOAD PUSH2 0x88F PUSH1 0x1F DUP10 AND DUP3 PUSH2 0x7A2 JUMP JUMPDEST DUP4 SSTORE POP JUMPDEST PUSH1 0x1 PUSH1 0x2 DUP9 MUL ADD DUP9 SSTORE POP POP POP JUMPDEST POP POP POP POP POP POP JUMP JUMPDEST PUSH2 0x8B1 DUP2 PUSH2 0x331 JUMP JUMPDEST DUP3 MSTORE POP POP JUMP JUMPDEST PUSH0 JUMPDEST DUP4 DUP2 LT ISZERO PUSH2 0x8D4 JUMPI DUP1 DUP3 ADD MLOAD DUP2 DUP5 ADD MSTORE PUSH1 0x20 DUP2 ADD SWAP1 POP PUSH2 0x8B9 JUMP JUMPDEST PUSH0 DUP5 DUP5 ADD MSTORE POP POP POP POP JUMP JUMPDEST PUSH0 PUSH2 0x8E9 DUP3 PUSH2 0x5D5 JUMP JUMPDEST PUSH2 0x8F3 DUP2 DUP6 PUSH2 0x537 JUMP JUMPDEST SWAP4 POP PUSH2 0x903 DUP2 DUP6 PUSH1 0x20 DUP7 ADD PUSH2 0x8B7 JUMP JUMPDEST PUSH2 0x90C DUP2 PUSH2 0x36C JUMP JUMPDEST DUP5 ADD SWAP2 POP POP SWAP3 SWAP2 POP POP JUMP JUMPDEST PUSH0 PUSH20 0xFFFFFFFFFFFFFFFFFFFFFFFFFFFFFFFFFFFFFFFF DUP3 AND SWAP1 POP SWAP2 SWAP1 POP JUMP JUMPDEST PUSH0 PUSH2 0x940 DUP3 PUSH2 0x917 JUMP JUMPDEST SWAP1 POP SWAP2 SWAP1 POP JUMP JUMPDEST PUSH2 0x950 DUP2 PUSH2 0x936 JUMP JUMPDEST DUP3 MSTORE POP POP JUMP JUMPDEST PUSH0 PUSH1 0x80 DUP3 ADD SWAP1 POP PUSH2 0x969 PUSH0 DUP4 ADD DUP8 PUSH2 0x8A8 JUMP JUMPDEST PUSH2 0x976 PUSH1 0x20 DUP4 ADD DUP7 PUSH2 0x8A8 JUMP JUMPDEST DUP2 DUP2 SUB PUSH1 0x40 DUP4 ADD MSTORE PUSH2 0x988 DUP2 DUP6 PUSH2 0x8DF JUMP JUMPDEST SWAP1 POP PUSH2 0x997 PUSH1 0x60 DUP4 ADD DUP5 PUSH2 0x947 JUMP JUMPDEST SWAP6 SWAP5 POP POP POP POP POP JUMP JUMPDEST PUSH32 0x4461746120776974682074686973206B657920646F65736E2774206578697374 PUSH0 DUP3 ADD MSTORE POP JUMP JUMPDEST PUSH0 PUSH2 0x9D4 PUSH1 0x20 DUP4 PUSH2 0x537 JUMP JUMPDEST SWAP2 POP PUSH2 0x9DF DUP3 PUSH2 0x9A0 JUMP JUMPDEST PUSH1 0x20 DUP3 ADD SWAP1 POP SWAP2 SWAP1 POP JUMP JUMPDEST PUSH0 PUSH1 0x20 DUP3 ADD SWAP1 POP DUP2 DUP2 SUB PUSH0 DUP4 ADD MSTORE PUSH2 0xA01 DUP2 PUSH2 0x9C8 JUMP JUMPDEST SWAP1 POP SWAP2 SWAP1 POP JUMP JUMPDEST PUSH0 DUP2 SLOAD PUSH2 0xA14 DUP2 PUSH2 0x60C JUMP JUMPDEST PUSH2 0xA1E DUP2 DUP7 PUSH2 0x537 JUMP JUMPDEST SWAP5 POP PUSH1 0x1 DUP3 AND PUSH0 DUP2 EQ PUSH2 0xA38 JUMPI PUSH1 0x1 DUP2 EQ PUSH2 0xA4E JUMPI PUSH2 0xA80 JUMP JUMPDEST PUSH1 0xFF NOT DUP4 AND DUP7 MSTORE DUP2 ISZERO ISZERO PUSH1 0x20 MUL DUP7 ADD SWAP4 POP PUSH2 0xA80 JUMP JUMPDEST PUSH2 0xA57 DUP6 PUSH2 0x63C JUMP JUMPDEST PUSH0 JUMPDEST DUP4 DUP2 LT ISZERO PUSH2 0xA78 JUMPI DUP2 SLOAD DUP2 DUP10 ADD MSTORE PUSH1 0x1 DUP3 ADD SWAP2 POP PUSH1 0x20 DUP2 ADD SWAP1 POP PUSH2 0xA59 JUMP JUMPDEST DUP1 DUP9 ADD SWAP6 POP POP POP JUMPDEST POP POP POP SWAP3 SWAP2 POP POP JUMP JUMPDEST PUSH0 PUSH1 0x80 DUP3 ADD SWAP1 POP PUSH2 0xA9C PUSH0 DUP4 ADD DUP8 PUSH2 0x8A8 JUMP JUMPDEST PUSH2 0xAA9 PUSH1 0x20 DUP4 ADD DUP7 PUSH2 0x8A8 JUMP JUMPDEST DUP2 DUP2 SUB PUSH1 0x40 DUP4 ADD MSTORE PUSH2 0xABB DUP2 DUP6 PUSH2 0xA08 JUMP JUMPDEST SWAP1 POP PUSH2 0xACA PUSH1 0x60 DUP4 ADD DUP5 PUSH2 0x947 JUMP JUMPDEST SWAP6 SWAP5 POP POP POP POP POP JUMP INVALID LOG2 PUSH5 0x6970667358 0x22 SLT KECCAK256 0x2E 0x4F PUSH31 0x2CDBCCD72942E01A58BE41A8B40C698D848C2652CF3AEEFE2B636FDED36473 PUSH16 0x6C634300081600330000000000000000 "
				},
				"gasEstimates": {
					"creation": {
						"codeDepositCost": "565000",
						"executionCost": "598",
						"totalCost": "565598"
					},
					"external": {
						"addData(uint256,uint256,string)": "infinite",
						"removeData(uint256)": "infinite"
					}
				},
				"methodIdentifiers": {
					"addData(uint256,uint256,string)": "1c44252c",
					"removeData(uint256)": "a94840bb"
				}
			},
			"storageLayout": {
				"storage": [
					{
						"astId": 15,
						"contract": "contracts/1_Storage.sol:StorageContract",
						"label": "myDataMap",
						"offset": 0,
						"slot": "0",
						"type": "t_mapping(t_uint256,t_struct(MyData)10_storage)"
					}
				],
				"types": {
					"t_address": {
						"encoding": "inplace",
						"label": "address",
						"numberOfBytes": "20"
					},
					"t_bool": {
						"encoding": "inplace",
						"label": "bool",
						"numberOfBytes": "1"
					},
					"t_mapping(t_uint256,t_struct(MyData)10_storage)": {
						"encoding": "mapping",
						"key": "t_uint256",
						"label": "mapping(uint256 => struct StorageContract.MyData)",
						"numberOfBytes": "32",
						"value": "t_struct(MyData)10_storage"
					},
					"t_string_storage": {
						"encoding": "bytes",
						"label": "string",
						"numberOfBytes": "32"
					},
					"t_struct(MyData)10_storage": {
						"encoding": "inplace",
						"label": "struct StorageContract.MyData",
						"members": [
							{
								"astId": 3,
								"contract": "contracts/1_Storage.sol:StorageContract",
								"label": "number",
								"offset": 0,
								"slot": "0",
								"type": "t_uint256"
							},
							{
								"astId": 5,
								"contract": "contracts/1_Storage.sol:StorageContract",
								"label": "name",
								"offset": 0,
								"slot": "1",
								"type": "t_string_storage"
							},
							{
								"astId": 7,
								"contract": "contracts/1_Storage.sol:StorageContract",
								"label": "owner",
								"offset": 0,
								"slot": "2",
								"type": "t_address"
							},
							{
								"astId": 9,
								"contract": "contracts/1_Storage.sol:StorageContract",
								"label": "isDeleted",
								"offset": 20,
								"slot": "2",
								"type": "t_bool"
							}
						],
						"numberOfBytes": "96"
					},
					"t_uint256": {
						"encoding": "inplace",
						"label": "uint256",
						"numberOfBytes": "32"
					}
				}
			},
			"userdoc": {
				"kind": "user",
				"methods": {},
				"version": 1
			}
		}
	}
}